{
  "_format": "hh-sol-artifact-1",
  "contractName": "Logger",
  "sourceName": "contracts/Logger.sol",
  "abi": [
    {
      "inputs": [
        {
          "internalType": "address",
          "name": "_from",
          "type": "address"
        },
        {
          "internalType": "uint256",
          "name": "_index",
          "type": "uint256"
        }
      ],
      "name": "getEntry",
      "outputs": [
        {
          "internalType": "uint256",
          "name": "",
          "type": "uint256"
        }
      ],
      "stateMutability": "view",
      "type": "function"
    },
    {
      "inputs": [
        {
          "internalType": "address",
          "name": "_from",
          "type": "address"
        },
        {
          "internalType": "uint256",
          "name": "_amount",
          "type": "uint256"
        }
      ],
      "name": "log",
      "outputs": [],
      "stateMutability": "nonpayable",
      "type": "function"
    }
  ],
  "bytecode": "0x608060405234801561001057600080fd5b50610398806100206000396000f3fe608060405234801561001057600080fd5b50600436106100365760003560e01c80638309e8a81461003b578063b8a740e014610057575b600080fd5b61005560048036038101906100509190610215565b610087565b005b610071600480360381019061006c9190610215565b610160565b60405161007e91906102a3565b60405180910390f35b600073ffffffffffffffffffffffffffffffffffffffff168273ffffffffffffffffffffffffffffffffffffffff1614156100f7576040517f08c379a00000000000000000000000000000000000000000000000000000000081526004016100ee90610283565b60405180910390fd5b6000808373ffffffffffffffffffffffffffffffffffffffff1673ffffffffffffffffffffffffffffffffffffffff1681526020019081526020016000208190806001815401808255809150506001900390600052602060002001600090919091909150555050565b60008060008473ffffffffffffffffffffffffffffffffffffffff1673ffffffffffffffffffffffffffffffffffffffff16815260200190815260200160002082815481106101d8577f4e487b7100000000000000000000000000000000000000000000000000000000600052603260045260246000fd5b9060005260206000200154905092915050565b6000813590506101fa81610334565b92915050565b60008135905061020f8161034b565b92915050565b6000806040838503121561022857600080fd5b6000610236858286016101eb565b925050602061024785828601610200565b9150509250929050565b600061025e600d836102be565b91506102698261030b565b602082019050919050565b61027d81610301565b82525050565b6000602082019050818103600083015261029c81610251565b9050919050565b60006020820190506102b86000830184610274565b92915050565b600082825260208201905092915050565b60006102da826102e1565b9050919050565b600073ffffffffffffffffffffffffffffffffffffffff82169050919050565b6000819050919050565b7f7a65726f20616464726573732100000000000000000000000000000000000000600082015250565b61033d816102cf565b811461034857600080fd5b50565b61035481610301565b811461035f57600080fd5b5056fea2646970667358221220ef134604e38638b369d289f5f50a57659bf7f79f7c79be1324f05433ef0ab38e64736f6c63430008040033",
  "linkReferences": {},
  "deployedLinkReferences": {}
}