{
  "_format": "hh-sol-artifact-1",
  "contractName": "NonOptimized",
  "sourceName": "contracts/Optimization.sol",
  "abi": [
    {
      "inputs": [],
      "name": "calc",
      "outputs": [],
      "stateMutability": "nonpayable",
      "type": "function"
    },
    {
      "inputs": [
        {
          "internalType": "uint256[]",
          "name": "data",
          "type": "uint256[]"
        }
      ],
      "name": "doWork",
      "outputs": [],
      "stateMutability": "nonpayable",
      "type": "function"
    },
    {
      "inputs": [],
      "name": "hash",
      "outputs": [
        {
          "internalType": "bytes32",
          "name": "",
          "type": "bytes32"
        }
      ],
      "stateMutability": "view",
      "type": "function"
    },
    {
      "inputs": [],
      "name": "pay",
      "outputs": [],
      "stateMutability": "payable",
      "type": "function"
    },
    {
      "inputs": [],
      "name": "result",
      "outputs": [
        {
          "internalType": "uint256",
          "name": "",
          "type": "uint256"
        }
      ],
      "stateMutability": "view",
      "type": "function"
    }
  ],
  "bytecode": "0x60806040526000805560018060006101000a8154816fffffffffffffffffffffffffffffffff02191690836fffffffffffffffffffffffffffffffff16021790555060016002556001600360006101000a8154816fffffffffffffffffffffffffffffffff02191690836fffffffffffffffffffffffffffffffff1602179055506001600360106101000a81548160ff021916908360ff1602179055506040518060600160405280600160ff168152602001600260ff168152602001600360ff1681525060049060036100d3929190610118565b506040516020016100e3906101aa565b6040516020818303038152906040528051906020012060055560056009556001600b5534801561011257600080fd5b506101f3565b828054828255906000526020600020908101928215610159579160200282015b82811115610158578251829060ff16905591602001919060010190610138565b5b509050610166919061016a565b5090565b5b8082111561018357600081600090555060010161016b565b5090565b60006101946004836101bf565b915061019f826101ca565b600482019050919050565b60006101b582610187565b9150819050919050565b600081905092915050565b7f7465737400000000000000000000000000000000000000000000000000000000600082015250565b610685806102026000396000f3fe60806040526004361061004a5760003560e01c806309bd5a601461004f5780631b9265b81461007a5780635186701d1461008457806365372147146100ad57806396f1b6be146100d8575b600080fd5b34801561005b57600080fd5b506100646100ef565b60405161007191906103aa565b60405180910390f35b6100826100f5565b005b34801561009057600080fd5b506100ab60048036038101906100a69190610328565b6101b1565b005b3480156100b957600080fd5b506100c261022d565b6040516100cf91906103e5565b60405180910390f35b3480156100e457600080fd5b506100ed610233565b005b60055481565b6000339050600073ffffffffffffffffffffffffffffffffffffffff168173ffffffffffffffffffffffffffffffffffffffff16141561016a576040517f08c379a0000000000000000000000000000000000000000000000000000000008152600401610161906103c5565b60405180910390fd5b34600660008373ffffffffffffffffffffffffffffffffffffffff1673ffffffffffffffffffffffffffffffffffffffff1681526020019081526020016000208190555050565b60005b8151811015610229578181815181106101f6577f4e487b7100000000000000000000000000000000000000000000000000000000600052603260045260246000fd5b6020026020010151600b600082825461020f91906104b8565b92505081905550808061022190610557565b9150506101b4565b5050565b600b5481565b600060095460016102449190610462565b90506000600954600261025791906104b8565b90506102638282610267565b5050565b80826102739190610462565b600a819055505050565b600061029061028b84610425565b610400565b905080838252602082019050828560208602820111156102af57600080fd5b60005b858110156102df57816102c58882610313565b8452602084019350602083019250506001810190506102b2565b5050509392505050565b600082601f8301126102fa57600080fd5b813561030a84826020860161027d565b91505092915050565b60008135905061032281610638565b92915050565b60006020828403121561033a57600080fd5b600082013567ffffffffffffffff81111561035457600080fd5b610360848285016102e9565b91505092915050565b61037281610512565b82525050565b6000610385600c83610451565b91506103908261060f565b602082019050919050565b6103a48161051c565b82525050565b60006020820190506103bf6000830184610369565b92915050565b600060208201905081810360008301526103de81610378565b9050919050565b60006020820190506103fa600083018461039b565b92915050565b600061040a61041b565b90506104168282610526565b919050565b6000604051905090565b600067ffffffffffffffff8211156104405761043f6105cf565b5b602082029050602081019050919050565b600082825260208201905092915050565b600061046d8261051c565b91506104788361051c565b9250827fffffffffffffffffffffffffffffffffffffffffffffffffffffffffffffffff038211156104ad576104ac6105a0565b5b828201905092915050565b60006104c38261051c565b91506104ce8361051c565b9250817fffffffffffffffffffffffffffffffffffffffffffffffffffffffffffffffff0483118215151615610507576105066105a0565b5b828202905092915050565b6000819050919050565b6000819050919050565b61052f826105fe565b810181811067ffffffffffffffff8211171561054e5761054d6105cf565b5b80604052505050565b60006105628261051c565b91507fffffffffffffffffffffffffffffffffffffffffffffffffffffffffffffffff821415610595576105946105a0565b5b600182019050919050565b7f4e487b7100000000000000000000000000000000000000000000000000000000600052601160045260246000fd5b7f4e487b7100000000000000000000000000000000000000000000000000000000600052604160045260246000fd5b6000601f19601f8301169050919050565b7f7a65726f20616464726573730000000000000000000000000000000000000000600082015250565b6106418161051c565b811461064c57600080fd5b5056fea2646970667358221220b1adb52674500db1cac23c0c0fe52065c7ce6518dff3a01f8ccd2dd5a943def764736f6c63430008040033",
  "linkReferences": {},
  "deployedLinkReferences": {}
}