{
  "_format": "hh-sol-artifact-1",
  "contractName": "Optimized",
  "sourceName": "contracts/Optimization.sol",
  "abi": [
    {
      "inputs": [],
      "name": "calc",
      "outputs": [],
      "stateMutability": "nonpayable",
      "type": "function"
    },
    {
      "inputs": [
        {
          "internalType": "uint256[]",
          "name": "data",
          "type": "uint256[]"
        }
      ],
      "name": "doWork",
      "outputs": [],
      "stateMutability": "nonpayable",
      "type": "function"
    },
    {
      "inputs": [],
      "name": "hash",
      "outputs": [
        {
          "internalType": "bytes32",
          "name": "",
          "type": "bytes32"
        }
      ],
      "stateMutability": "view",
      "type": "function"
    },
    {
      "inputs": [],
      "name": "pay",
      "outputs": [],
      "stateMutability": "payable",
      "type": "function"
    },
    {
      "inputs": [],
      "name": "result",
      "outputs": [
        {
          "internalType": "uint256",
          "name": "",
          "type": "uint256"
        }
      ],
      "stateMutability": "view",
      "type": "function"
    }
  ],
  "bytecode": "0x608060405260018060006101000a8154816fffffffffffffffffffffffffffffffff02191690836fffffffffffffffffffffffffffffffff16021790555060018060106101000a8154816fffffffffffffffffffffffffffffffff02191690836fffffffffffffffffffffffffffffffff160217905550600160025560016003556040518060600160405280600160ff168152602001600260ff168152602001600360ff1681525060049060036100b79291906100fb565b507f9c22ff5f21f0b81b113e63f7db6da94fedef11b2119b4088b89664fb9a3cb65860001b600555600560125560016014553480156100f557600080fd5b506101bf565b82805482825590600052602060002090601f016020900481019282156101915791602002820160005b8382111561016257835183826101000a81548160ff021916908360ff1602179055509260200192600101602081600001049283019260010302610124565b801561018f5782816101000a81549060ff0219169055600101602081600001049283019260010302610162565b505b50905061019e91906101a2565b5090565b5b808211156101bb5760008160009055506001016101a3565b5090565b610674806101ce6000396000f3fe60806040526004361061004a5760003560e01c806309bd5a601461004f5780631b9265b81461007a5780635186701d1461008457806365372147146100ad57806396f1b6be146100d8575b600080fd5b34801561005b57600080fd5b506100646100ef565b6040516100719190610399565b60405180910390f35b6100826100f5565b005b34801561009057600080fd5b506100ab60048036038101906100a69190610317565b6101ab565b005b3480156100b957600080fd5b506100c261022a565b6040516100cf91906103d4565b60405180910390f35b3480156100e457600080fd5b506100ed610230565b005b60055481565b600073ffffffffffffffffffffffffffffffffffffffff163373ffffffffffffffffffffffffffffffffffffffff161415610165576040517f08c379a000000000000000000000000000000000000000000000000000000000815260040161015c906103b4565b60405180910390fd5b34600660003373ffffffffffffffffffffffffffffffffffffffff1673ffffffffffffffffffffffffffffffffffffffff16815260200190815260200160002081905550565b60006001905060005b825181101561021e578281815181106101f6577f4e487b7100000000000000000000000000000000000000000000000000000000600052603260045260246000fd5b60200260200101518261020991906104a7565b9150808061021690610546565b9150506101b4565b50806014819055505050565b60145481565b600060125460016102419190610451565b90506000601254600261025491906104a7565b905080826102629190610451565b6013819055505050565b600061027f61027a84610414565b6103ef565b9050808382526020820190508285602086028201111561029e57600080fd5b60005b858110156102ce57816102b48882610302565b8452602084019350602083019250506001810190506102a1565b5050509392505050565b600082601f8301126102e957600080fd5b81356102f984826020860161026c565b91505092915050565b60008135905061031181610627565b92915050565b60006020828403121561032957600080fd5b600082013567ffffffffffffffff81111561034357600080fd5b61034f848285016102d8565b91505092915050565b61036181610501565b82525050565b6000610374600c83610440565b915061037f826105fe565b602082019050919050565b6103938161050b565b82525050565b60006020820190506103ae6000830184610358565b92915050565b600060208201905081810360008301526103cd81610367565b9050919050565b60006020820190506103e9600083018461038a565b92915050565b60006103f961040a565b90506104058282610515565b919050565b6000604051905090565b600067ffffffffffffffff82111561042f5761042e6105be565b5b602082029050602081019050919050565b600082825260208201905092915050565b600061045c8261050b565b91506104678361050b565b9250827fffffffffffffffffffffffffffffffffffffffffffffffffffffffffffffffff0382111561049c5761049b61058f565b5b828201905092915050565b60006104b28261050b565b91506104bd8361050b565b9250817fffffffffffffffffffffffffffffffffffffffffffffffffffffffffffffffff04831182151516156104f6576104f561058f565b5b828202905092915050565b6000819050919050565b6000819050919050565b61051e826105ed565b810181811067ffffffffffffffff8211171561053d5761053c6105be565b5b80604052505050565b60006105518261050b565b91507fffffffffffffffffffffffffffffffffffffffffffffffffffffffffffffffff8214156105845761058361058f565b5b600182019050919050565b7f4e487b7100000000000000000000000000000000000000000000000000000000600052601160045260246000fd5b7f4e487b7100000000000000000000000000000000000000000000000000000000600052604160045260246000fd5b6000601f19601f8301169050919050565b7f7a65726f20616464726573730000000000000000000000000000000000000000600082015250565b6106308161050b565b811461063b57600080fd5b5056fea26469706673582212209894e48c0332791b34cd7412909cca9e55ca00da85d68cf6ab8647361c0fdb2264736f6c63430008040033",
  "linkReferences": {},
  "deployedLinkReferences": {}
}