{
  "_format": "hh-sol-artifact-1",
  "contractName": "Demo",
  "sourceName": "contracts/Demo.sol",
  "abi": [
    {
      "inputs": [],
      "stateMutability": "nonpayable",
      "type": "constructor"
    },
    {
      "anonymous": false,
      "inputs": [
        {
          "indexed": true,
          "internalType": "address",
          "name": "_from",
          "type": "address"
        },
        {
          "indexed": true,
          "internalType": "address",
          "name": "_to",
          "type": "address"
        },
        {
          "indexed": false,
          "internalType": "uint256",
          "name": "_amount",
          "type": "uint256"
        },
        {
          "indexed": false,
          "internalType": "uint256",
          "name": "_timestamp",
          "type": "uint256"
        }
      ],
      "name": "Paid",
      "type": "event"
    },
    {
      "stateMutability": "payable",
      "type": "fallback"
    },
    {
      "inputs": [],
      "name": "balance",
      "outputs": [
        {
          "internalType": "uint256",
          "name": "",
          "type": "uint256"
        }
      ],
      "stateMutability": "view",
      "type": "function"
    },
    {
      "inputs": [],
      "name": "owner",
      "outputs": [
        {
          "internalType": "address",
          "name": "",
          "type": "address"
        }
      ],
      "stateMutability": "view",
      "type": "function"
    },
    {
      "inputs": [],
      "name": "pay",
      "outputs": [],
      "stateMutability": "payable",
      "type": "function"
    },
    {
      "inputs": [
        {
          "internalType": "address payable",
          "name": "_to",
          "type": "address"
        }
      ],
      "name": "withdraw",
      "outputs": [],
      "stateMutability": "nonpayable",
      "type": "function"
    },
    {
      "stateMutability": "payable",
      "type": "receive"
    }
  ],
  "bytecode": "0x608060405234801561001057600080fd5b50336000806101000a81548173ffffffffffffffffffffffffffffffffffffffff021916908373ffffffffffffffffffffffffffffffffffffffff16021790555061050a806100606000396000f3fe6080604052600436106100435760003560e01c80631b9265b81461005c57806351cff8d9146100665780638da5cb5b1461008f578063b69ef8a8146100ba57610052565b36610052576100506100e5565b005b61005a6100e5565b005b6100646100e5565b005b34801561007257600080fd5b5061008d600480360381019061008891906102e0565b61014e565b005b34801561009b57600080fd5b506100a461029f565b6040516100b1919061036d565b60405180910390f35b3480156100c657600080fd5b506100cf6102c3565b6040516100dc91906103c8565b60405180910390f35b3073ffffffffffffffffffffffffffffffffffffffff163373ffffffffffffffffffffffffffffffffffffffff167f26c4308021cef5cdbc618fee8b61faf9de6b8f7e4e49fac43869dc1a2675640834426040516101449291906103e3565b60405180910390a3565b8060008054906101000a900473ffffffffffffffffffffffffffffffffffffffff1673ffffffffffffffffffffffffffffffffffffffff163373ffffffffffffffffffffffffffffffffffffffff16146101dd576040517f08c379a00000000000000000000000000000000000000000000000000000000081526004016101d490610388565b60405180910390fd5b600073ffffffffffffffffffffffffffffffffffffffff168173ffffffffffffffffffffffffffffffffffffffff16141561024d576040517f08c379a0000000000000000000000000000000000000000000000000000000008152600401610244906103a8565b60405180910390fd5b8173ffffffffffffffffffffffffffffffffffffffff166108fc61026f6102c3565b9081150290604051600060405180830381858888f1935050505015801561029a573d6000803e3d6000fd5b505050565b60008054906101000a900473ffffffffffffffffffffffffffffffffffffffff1681565b600047905090565b6000813590506102da816104bd565b92915050565b6000602082840312156102f257600080fd5b6000610300848285016102cb565b91505092915050565b6103128161041d565b82525050565b600061032560158361040c565b91506103308261046b565b602082019050919050565b600061034860118361040c565b915061035382610494565b602082019050919050565b61036781610461565b82525050565b60006020820190506103826000830184610309565b92915050565b600060208201905081810360008301526103a181610318565b9050919050565b600060208201905081810360008301526103c18161033b565b9050919050565b60006020820190506103dd600083018461035e565b92915050565b60006040820190506103f8600083018561035e565b610405602083018461035e565b9392505050565b600082825260208201905092915050565b600061042882610441565b9050919050565b600061043a82610441565b9050919050565b600073ffffffffffffffffffffffffffffffffffffffff82169050919050565b6000819050919050565b7f796f7520617265206e6f7420746865206f776e65720000000000000000000000600082015250565b7f696e636f72726563742061646472657373000000000000000000000000000000600082015250565b6104c68161042f565b81146104d157600080fd5b5056fea2646970667358221220bea4f30808eb73114a465ba8190c807b853bd1bbf28e14a082581fe3f76c77db64736f6c63430008040033",
  "linkReferences": {},
  "deployedLinkReferences": {}
}