{
  "_format": "hh-sol-artifact-1",
  "contractName": "AucEngine",
  "sourceName": "contracts/AucEngine.sol",
  "abi": [
    {
      "inputs": [],
      "stateMutability": "nonpayable",
      "type": "constructor"
    },
    {
      "anonymous": false,
      "inputs": [
        {
          "indexed": false,
          "internalType": "uint256",
          "name": "index",
          "type": "uint256"
        },
        {
          "indexed": false,
          "internalType": "string",
          "name": "itemName",
          "type": "string"
        },
        {
          "indexed": false,
          "internalType": "uint256",
          "name": "startingPrice",
          "type": "uint256"
        },
        {
          "indexed": false,
          "internalType": "uint256",
          "name": "duration",
          "type": "uint256"
        }
      ],
      "name": "AuctionCreated",
      "type": "event"
    },
    {
      "anonymous": false,
      "inputs": [
        {
          "indexed": false,
          "internalType": "uint256",
          "name": "index",
          "type": "uint256"
        },
        {
          "indexed": false,
          "internalType": "uint256",
          "name": "finalPrice",
          "type": "uint256"
        },
        {
          "indexed": false,
          "internalType": "address",
          "name": "winner",
          "type": "address"
        }
      ],
      "name": "AuctionEnded",
      "type": "event"
    },
    {
      "inputs": [
        {
          "internalType": "uint256",
          "name": "",
          "type": "uint256"
        }
      ],
      "name": "auctions",
      "outputs": [
        {
          "internalType": "address payable",
          "name": "seller",
          "type": "address"
        },
        {
          "internalType": "uint256",
          "name": "startingPrice",
          "type": "uint256"
        },
        {
          "internalType": "uint256",
          "name": "finalPrice",
          "type": "uint256"
        },
        {
          "internalType": "uint256",
          "name": "startAt",
          "type": "uint256"
        },
        {
          "internalType": "uint256",
          "name": "endAt",
          "type": "uint256"
        },
        {
          "internalType": "uint256",
          "name": "discountRate",
          "type": "uint256"
        },
        {
          "internalType": "string",
          "name": "item",
          "type": "string"
        },
        {
          "internalType": "bool",
          "name": "stopped",
          "type": "bool"
        }
      ],
      "stateMutability": "view",
      "type": "function"
    },
    {
      "inputs": [
        {
          "internalType": "uint256",
          "name": "index",
          "type": "uint256"
        }
      ],
      "name": "buy",
      "outputs": [],
      "stateMutability": "payable",
      "type": "function"
    },
    {
      "inputs": [
        {
          "internalType": "uint256",
          "name": "_startingPrice",
          "type": "uint256"
        },
        {
          "internalType": "uint256",
          "name": "_discountRate",
          "type": "uint256"
        },
        {
          "internalType": "string",
          "name": "_item",
          "type": "string"
        },
        {
          "internalType": "uint256",
          "name": "_duration",
          "type": "uint256"
        }
      ],
      "name": "createAuction",
      "outputs": [],
      "stateMutability": "nonpayable",
      "type": "function"
    },
    {
      "inputs": [
        {
          "internalType": "uint256",
          "name": "index",
          "type": "uint256"
        }
      ],
      "name": "getPriceFor",
      "outputs": [
        {
          "internalType": "uint256",
          "name": "",
          "type": "uint256"
        }
      ],
      "stateMutability": "view",
      "type": "function"
    },
    {
      "inputs": [],
      "name": "owner",
      "outputs": [
        {
          "internalType": "address",
          "name": "",
          "type": "address"
        }
      ],
      "stateMutability": "view",
      "type": "function"
    }
  ],
  "bytecode": "0x608060405234801561001057600080fd5b50336000806101000a81548173ffffffffffffffffffffffffffffffffffffffff021916908373ffffffffffffffffffffffffffffffffffffffff160217905550611223806100606000396000f3fe60806040526004361061004a5760003560e01c80634534cd9c1461004f578063571a26a01461008c5780638da5cb5b146100d0578063d96a094a146100fb578063e9835d1514610117575b600080fd5b34801561005b57600080fd5b5061007660048036038101906100719190610afe565b610140565b6040516100839190610df5565b60405180910390f35b34801561009857600080fd5b506100b360048036038101906100ae9190610afe565b6103ac565b6040516100c7989796959493929190610cf0565b60405180910390f35b3480156100dc57600080fd5b506100e56104b9565b6040516100f29190610cd5565b60405180910390f35b61011560048036038101906101109190610afe565b6104dd565b005b34801561012357600080fd5b5061013e60048036038101906101399190610b27565b6107b6565b005b6000816001818154811061017d577f4e487b7100000000000000000000000000000000000000000000000000000000600052603260045260246000fd5b906000526020600020906008020160070160009054906101000a900460ff16156101dc576040517f08c379a00000000000000000000000000000000000000000000000000000000081526004016101d390610d95565b60405180910390fd5b600060018481548110610218577f4e487b7100000000000000000000000000000000000000000000000000000000600052603260045260246000fd5b9060005260206000209060080201604051806101000160405290816000820160009054906101000a900473ffffffffffffffffffffffffffffffffffffffff1673ffffffffffffffffffffffffffffffffffffffff1673ffffffffffffffffffffffffffffffffffffffff16815260200160018201548152602001600282015481526020016003820154815260200160048201548152602001600582015481526020016006820180546102ca90611062565b80601f01602080910402602001604051908101604052809291908181526020018280546102f690611062565b80156103435780601f1061031857610100808354040283529160200191610343565b820191906000526020600020905b81548152906001019060200180831161032657829003601f168201915b505050505081526020016007820160009054906101000a900460ff1615151515815250509050600081606001514261037b9190610f92565b905060008260a001518261038f9190610f38565b90508083602001516103a19190610f92565b945050505050919050565b600181815481106103bc57600080fd5b90600052602060002090600802016000915090508060000160009054906101000a900473ffffffffffffffffffffffffffffffffffffffff169080600101549080600201549080600301549080600401549080600501549080600601805461042390611062565b80601f016020809104026020016040519081016040528092919081815260200182805461044f90611062565b801561049c5780601f106104715761010080835404028352916020019161049c565b820191906000526020600020905b81548152906001019060200180831161047f57829003601f168201915b5050505050908060070160009054906101000a900460ff16905088565b60008054906101000a900473ffffffffffffffffffffffffffffffffffffffff1681565b8060018181548110610518577f4e487b7100000000000000000000000000000000000000000000000000000000600052603260045260246000fd5b906000526020600020906008020160070160009054906101000a900460ff1615610577576040517f08c379a000000000000000000000000000000000000000000000000000000000815260040161056e90610d95565b60405180910390fd5b6000600183815481106105b3577f4e487b7100000000000000000000000000000000000000000000000000000000600052603260045260246000fd5b9060005260206000209060080201905042816004015411610609576040517f08c379a000000000000000000000000000000000000000000000000000000000815260040161060090610d75565b60405180910390fd5b600061061484610140565b905080341015610659576040517f08c379a000000000000000000000000000000000000000000000000000000000815260040161065090610db5565b60405180910390fd5b60018260070160006101000a81548160ff0219169083151502179055508082600201819055506000813461068d9190610f92565b905060008111156106e0573373ffffffffffffffffffffffffffffffffffffffff166108fc829081150290604051600060405180830381858888f193505050501580156106de573d6000803e3d6000fd5b505b60006064600a846106f19190610f38565b6106fb9190610f07565b90508360000160009054906101000a900473ffffffffffffffffffffffffffffffffffffffff1673ffffffffffffffffffffffffffffffffffffffff166108fc82856107479190610f92565b9081150290604051600060405180830381858888f19350505050158015610772573d6000803e3d6000fd5b507fbafc4bda865d4d1f8d5b16f883e996fde0fe71112fac81503876d353756944008684336040516107a693929190610e5e565b60405180910390a1505050505050565b60008082146107c557816107ca565b6202a3005b905080856107d89190610f38565b86101561081a576040517f08c379a000000000000000000000000000000000000000000000000000000000815260040161081190610dd5565b60405180910390fd5b60006040518061010001604052803373ffffffffffffffffffffffffffffffffffffffff16815260200188815260200188815260200142815260200183426108629190610eb1565b815260200187815260200186868080601f016020809104026020016040519081016040528093929190818152602001838380828437600081840152601f19601f820116905080830192505050505050508152602001600015158152509050600181908060018154018082558091505060019003906000526020600020906008020160009091909190915060008201518160000160006101000a81548173ffffffffffffffffffffffffffffffffffffffff021916908373ffffffffffffffffffffffffffffffffffffffff1602179055506020820151816001015560408201518160020155606082015181600301556080820151816004015560a0820151816005015560c08201518160060190805190602001906109819291906109fc565b5060e08201518160070160006101000a81548160ff02191690831515021790555050507f5bf34ed94988e5dcdc7d1faaa54eb1d3b55f45d5f11457e235afb21a8ebbe73c600180805490506109d69190610f92565b86868a866040516109eb959493929190610e10565b60405180910390a150505050505050565b828054610a0890611062565b90600052602060002090601f016020900481019282610a2a5760008555610a71565b82601f10610a4357805160ff1916838001178555610a71565b82800160010185558215610a71579182015b82811115610a70578251825591602001919060010190610a55565b5b509050610a7e9190610a82565b5090565b5b80821115610a9b576000816000905550600101610a83565b5090565b60008083601f840112610ab157600080fd5b8235905067ffffffffffffffff811115610aca57600080fd5b602083019150836001820283011115610ae257600080fd5b9250929050565b600081359050610af8816111d6565b92915050565b600060208284031215610b1057600080fd5b6000610b1e84828501610ae9565b91505092915050565b600080600080600060808688031215610b3f57600080fd5b6000610b4d88828901610ae9565b9550506020610b5e88828901610ae9565b945050604086013567ffffffffffffffff811115610b7b57600080fd5b610b8788828901610a9f565b93509350506060610b9a88828901610ae9565b9150509295509295909350565b610bb081610fd8565b82525050565b610bbf81610fc6565b82525050565b610bce81610fea565b82525050565b6000610be08385610ea0565b9350610bed838584611020565b610bf683611121565b840190509392505050565b6000610c0c82610e95565b610c168185610ea0565b9350610c2681856020860161102f565b610c2f81611121565b840191505092915050565b6000610c47600983610ea0565b9150610c5282611132565b602082019050919050565b6000610c6a600883610ea0565b9150610c758261115b565b602082019050919050565b6000610c8d601483610ea0565b9150610c9882611184565b602082019050919050565b6000610cb0601783610ea0565b9150610cbb826111ad565b602082019050919050565b610ccf81611016565b82525050565b6000602082019050610cea6000830184610bb6565b92915050565b600061010082019050610d06600083018b610ba7565b610d13602083018a610cc6565b610d206040830189610cc6565b610d2d6060830188610cc6565b610d3a6080830187610cc6565b610d4760a0830186610cc6565b81810360c0830152610d598185610c01565b9050610d6860e0830184610bc5565b9998505050505050505050565b60006020820190508181036000830152610d8e81610c3a565b9050919050565b60006020820190508181036000830152610dae81610c5d565b9050919050565b60006020820190508181036000830152610dce81610c80565b9050919050565b60006020820190508181036000830152610dee81610ca3565b9050919050565b6000602082019050610e0a6000830184610cc6565b92915050565b6000608082019050610e256000830188610cc6565b8181036020830152610e38818688610bd4565b9050610e476040830185610cc6565b610e546060830184610cc6565b9695505050505050565b6000606082019050610e736000830186610cc6565b610e806020830185610cc6565b610e8d6040830184610bb6565b949350505050565b600081519050919050565b600082825260208201905092915050565b6000610ebc82611016565b9150610ec783611016565b9250827fffffffffffffffffffffffffffffffffffffffffffffffffffffffffffffffff03821115610efc57610efb611094565b5b828201905092915050565b6000610f1282611016565b9150610f1d83611016565b925082610f2d57610f2c6110c3565b5b828204905092915050565b6000610f4382611016565b9150610f4e83611016565b9250817fffffffffffffffffffffffffffffffffffffffffffffffffffffffffffffffff0483118215151615610f8757610f86611094565b5b828202905092915050565b6000610f9d82611016565b9150610fa883611016565b925082821015610fbb57610fba611094565b5b828203905092915050565b6000610fd182610ff6565b9050919050565b6000610fe382610ff6565b9050919050565b60008115159050919050565b600073ffffffffffffffffffffffffffffffffffffffff82169050919050565b6000819050919050565b82818337600083830152505050565b60005b8381101561104d578082015181840152602081019050611032565b8381111561105c576000848401525b50505050565b6000600282049050600182168061107a57607f821691505b6020821081141561108e5761108d6110f2565b5b50919050565b7f4e487b7100000000000000000000000000000000000000000000000000000000600052601160045260246000fd5b7f4e487b7100000000000000000000000000000000000000000000000000000000600052601260045260246000fd5b7f4e487b7100000000000000000000000000000000000000000000000000000000600052602260045260246000fd5b6000601f19601f8301169050919050565b7f74696d6527732075700000000000000000000000000000000000000000000000600082015250565b7f73746f7070656421000000000000000000000000000000000000000000000000600082015250565b7f7061796d656e7420696e73756666696369656e74000000000000000000000000600082015250565b7f696e637265617365207374617274696e67207072696365000000000000000000600082015250565b6111df81611016565b81146111ea57600080fd5b5056fea2646970667358221220d4b90b4905309f83155db60733828faf98ffa390dfc3d9cea5993ee16a5455fb64736f6c63430008040033",
  "linkReferences": {},
  "deployedLinkReferences": {}
}