{
  "_format": "hh-sol-artifact-1",
  "contractName": "LogDemo",
  "sourceName": "contracts/LogDemo.sol",
  "abi": [
    {
      "inputs": [
        {
          "internalType": "address",
          "name": "_Logger",
          "type": "address"
        }
      ],
      "stateMutability": "nonpayable",
      "type": "constructor"
    },
    {
      "inputs": [
        {
          "internalType": "address",
          "name": "_from",
          "type": "address"
        },
        {
          "internalType": "uint256",
          "name": "_number",
          "type": "uint256"
        }
      ],
      "name": "payment",
      "outputs": [
        {
          "internalType": "uint256",
          "name": "",
          "type": "uint256"
        }
      ],
      "stateMutability": "view",
      "type": "function"
    },
    {
      "stateMutability": "payable",
      "type": "receive"
    }
  ],
  "bytecode": "0x608060405234801561001057600080fd5b506040516104623803806104628339818101604052810190610032919061008d565b806000806101000a81548173ffffffffffffffffffffffffffffffffffffffff021916908373ffffffffffffffffffffffffffffffffffffffff160217905550506100ff565b600081519050610087816100e8565b92915050565b60006020828403121561009f57600080fd5b60006100ad84828501610078565b91505092915050565b60006100c1826100c8565b9050919050565b600073ffffffffffffffffffffffffffffffffffffffff82169050919050565b6100f1816100b6565b81146100fc57600080fd5b50565b6103548061010e6000396000f3fe6080604052600436106100225760003560e01c806367a09c23146100bb576100b6565b366100b65760008054906101000a900473ffffffffffffffffffffffffffffffffffffffff1673ffffffffffffffffffffffffffffffffffffffff16638309e8a833346040518363ffffffff1660e01b8152600401610082929190610270565b600060405180830381600087803b15801561009c57600080fd5b505af11580156100b0573d6000803e3d6000fd5b50505050005b600080fd5b3480156100c757600080fd5b506100e260048036038101906100dd91906101ed565b6100f8565b6040516100ef9190610299565b60405180910390f35b60008060009054906101000a900473ffffffffffffffffffffffffffffffffffffffff1673ffffffffffffffffffffffffffffffffffffffff1663b8a740e084846040518363ffffffff1660e01b8152600401610156929190610270565b60206040518083038186803b15801561016e57600080fd5b505afa158015610182573d6000803e3d6000fd5b505050506040513d601f19601f820116820180604052508101906101a69190610229565b905092915050565b6000813590506101bd816102f0565b92915050565b6000813590506101d281610307565b92915050565b6000815190506101e781610307565b92915050565b6000806040838503121561020057600080fd5b600061020e858286016101ae565b925050602061021f858286016101c3565b9150509250929050565b60006020828403121561023b57600080fd5b6000610249848285016101d8565b91505092915050565b61025b816102b4565b82525050565b61026a816102e6565b82525050565b60006040820190506102856000830185610252565b6102926020830184610261565b9392505050565b60006020820190506102ae6000830184610261565b92915050565b60006102bf826102c6565b9050919050565b600073ffffffffffffffffffffffffffffffffffffffff82169050919050565b6000819050919050565b6102f9816102b4565b811461030457600080fd5b50565b610310816102e6565b811461031b57600080fd5b5056fea2646970667358221220f58ce7b63444c20c11f980dbffb8dad317c0b017e86328659f43cd1cc3e8df8864736f6c63430008040033",
  "linkReferences": {},
  "deployedLinkReferences": {}
}