{
  "_format": "hh-sol-artifact-1",
  "contractName": "LibDemo",
  "sourceName": "contracts/LibDemo.sol",
  "abi": [
    {
      "inputs": [
        {
          "internalType": "uint256[]",
          "name": "arr",
          "type": "uint256[]"
        },
        {
          "internalType": "uint256",
          "name": "el",
          "type": "uint256"
        }
      ],
      "name": "runnerArrays",
      "outputs": [
        {
          "internalType": "bool",
          "name": "",
          "type": "bool"
        }
      ],
      "stateMutability": "pure",
      "type": "function"
    },
    {
      "inputs": [
        {
          "internalType": "string",
          "name": "str1",
          "type": "string"
        },
        {
          "internalType": "string",
          "name": "str2",
          "type": "string"
        }
      ],
      "name": "runnerStrings",
      "outputs": [
        {
          "internalType": "bool",
          "name": "",
          "type": "bool"
        }
      ],
      "stateMutability": "pure",
      "type": "function"
    }
  ],
  "bytecode": "0x608060405234801561001057600080fd5b50610634806100206000396000f3fe608060405234801561001057600080fd5b50600436106100365760003560e01c8063928c4d7b1461003b578063c35589871461006b575b600080fd5b61005560048036038101906100509190610317565b61009b565b60405161006291906103cb565b60405180910390f35b610085600480360381019061008091906102c3565b6100b8565b60405161009291906103cb565b60405180910390f35b60006100b082846100d590919063ffffffff16565b905092915050565b60006100cd828461012e90919063ffffffff16565b905092915050565b6000816040516020016100e891906103e6565b604051602081830303815290604052805190602001208360405160200161010f91906103e6565b6040516020818303038152906040528051906020012014905092915050565b600080600090505b83518110156101a45782848281518110610179577f4e487b7100000000000000000000000000000000000000000000000000000000600052603260045260246000fd5b602002602001015114156101915760019150506101aa565b808061019c9061052f565b915050610136565b50600090505b92915050565b60006101c36101be8461042d565b610408565b905080838252602082019050828560208602820111156101e257600080fd5b60005b8581101561021257816101f888826102ae565b8452602084019350602083019250506001810190506101e5565b5050509392505050565b600061022f61022a84610459565b610408565b90508281526020810184848401111561024757600080fd5b6102528482856104bc565b509392505050565b600082601f83011261026b57600080fd5b813561027b8482602086016101b0565b91505092915050565b600082601f83011261029557600080fd5b81356102a584826020860161021c565b91505092915050565b6000813590506102bd816105e7565b92915050565b600080604083850312156102d657600080fd5b600083013567ffffffffffffffff8111156102f057600080fd5b6102fc8582860161025a565b925050602061030d858286016102ae565b9150509250929050565b6000806040838503121561032a57600080fd5b600083013567ffffffffffffffff81111561034457600080fd5b61035085828601610284565b925050602083013567ffffffffffffffff81111561036d57600080fd5b61037985828601610284565b9150509250929050565b61038c816104a6565b82525050565b600061039d8261048a565b6103a78185610495565b93506103b78185602086016104cb565b6103c0816105d6565b840191505092915050565b60006020820190506103e06000830184610383565b92915050565b600060208201905081810360008301526104008184610392565b905092915050565b6000610412610423565b905061041e82826104fe565b919050565b6000604051905090565b600067ffffffffffffffff821115610448576104476105a7565b5b602082029050602081019050919050565b600067ffffffffffffffff821115610474576104736105a7565b5b61047d826105d6565b9050602081019050919050565b600081519050919050565b600082825260208201905092915050565b60008115159050919050565b6000819050919050565b82818337600083830152505050565b60005b838110156104e95780820151818401526020810190506104ce565b838111156104f8576000848401525b50505050565b610507826105d6565b810181811067ffffffffffffffff82111715610526576105256105a7565b5b80604052505050565b600061053a826104b2565b91507fffffffffffffffffffffffffffffffffffffffffffffffffffffffffffffffff82141561056d5761056c610578565b5b600182019050919050565b7f4e487b7100000000000000000000000000000000000000000000000000000000600052601160045260246000fd5b7f4e487b7100000000000000000000000000000000000000000000000000000000600052604160045260246000fd5b6000601f19601f8301169050919050565b6105f0816104b2565b81146105fb57600080fd5b5056fea26469706673582212207cdf3860b402dadeaac02ea63368eecdaf84e16523ad80f14173e7b4bf03333364736f6c63430008040033",
  "linkReferences": {},
  "deployedLinkReferences": {}
}