{
  "_format": "hh-sol-artifact-1",
  "contractName": "Merkle",
  "sourceName": "contracts/Merkle.sol",
  "abi": [
    {
      "inputs": [],
      "stateMutability": "nonpayable",
      "type": "constructor"
    },
    {
      "inputs": [
        {
          "internalType": "string",
          "name": "input",
          "type": "string"
        }
      ],
      "name": "encode",
      "outputs": [
        {
          "internalType": "bytes",
          "name": "",
          "type": "bytes"
        }
      ],
      "stateMutability": "pure",
      "type": "function"
    },
    {
      "inputs": [
        {
          "internalType": "uint256",
          "name": "",
          "type": "uint256"
        }
      ],
      "name": "hashes",
      "outputs": [
        {
          "internalType": "bytes32",
          "name": "",
          "type": "bytes32"
        }
      ],
      "stateMutability": "view",
      "type": "function"
    },
    {
      "inputs": [
        {
          "internalType": "string",
          "name": "input",
          "type": "string"
        }
      ],
      "name": "makeHash",
      "outputs": [
        {
          "internalType": "bytes32",
          "name": "",
          "type": "bytes32"
        }
      ],
      "stateMutability": "pure",
      "type": "function"
    },
    {
      "inputs": [
        {
          "internalType": "string",
          "name": "tx",
          "type": "string"
        },
        {
          "internalType": "uint256",
          "name": "index",
          "type": "uint256"
        },
        {
          "internalType": "bytes32",
          "name": "root",
          "type": "bytes32"
        },
        {
          "internalType": "bytes32[]",
          "name": "proof",
          "type": "bytes32[]"
        }
      ],
      "name": "verify",
      "outputs": [
        {
          "internalType": "bool",
          "name": "",
          "type": "bool"
        }
      ],
      "stateMutability": "pure",
      "type": "function"
    }
  ],
  "bytecode": "0x608060405260405180608001604052806040518060400160405280601081526020017f5458313a2073646866647364666864730000000000000000000000000000000081525081526020016040518060400160405280601081526020017f5458323a20666467686a6b686a6173720000000000000000000000000000000081525081526020016040518060400160405280601181526020017f5458333a206d676f6567766b736a676a6800000000000000000000000000000081525081526020016040518060400160405280601181526020017f5458343a206e67796e3339676e7369766e00000000000000000000000000000081525081525060019060046200010b92919062000407565b503480156200011957600080fd5b5060005b600481101562000242576000620002066001836004811062000168577f4e487b7100000000000000000000000000000000000000000000000000000000600052603260045260246000fd5b01805462000176906200074a565b80601f0160208091040260200160405190810160405280929190818152602001828054620001a4906200074a565b8015620001f55780601f10620001c957610100808354040283529160200191620001f5565b820191906000526020600020905b815481529060010190602001808311620001d757829003601f168201915b5050505050620003bb60201b60201c565b90806001815401808255809150506001900390600052602060002001600090919091909150558080620002399062000780565b9150506200011d565b5060006004905060005b6000821115620003b35760005b600183620002689190620006c5565b8110156200038b57600080828462000281919062000630565b81548110620002b9577f4e487b7100000000000000000000000000000000000000000000000000000000600052603260045260246000fd5b9060005260206000200154600060018486620002d6919062000630565b620002e2919062000630565b815481106200031a577f4e487b7100000000000000000000000000000000000000000000000000000000600052603260045260246000fd5b906000526020600020015460405160200162000338929190620005d1565b60405160208183030381529060405280519060200120908060018154018082558091505060019003906000526020600020016000909190919091505560028162000383919062000630565b905062000259565b5081816200039a919062000630565b9050600282620003ab91906200068d565b91506200024c565b505062000865565b6000620003ce82620003dc60201b60201c565b805190602001209050919050565b606081604051602001620003f1919062000601565b6040516020818303038152906040529050919050565b82600481019282156200044e579160200282015b828111156200044d5782518290805190602001906200043c92919062000461565b50916020019190600101906200041b565b5b5090506200045d9190620004f2565b5090565b8280546200046f906200074a565b90600052602060002090601f016020900481019282620004935760008555620004df565b82601f10620004ae57805160ff1916838001178555620004df565b82800160010185558215620004df579182015b82811115620004de578251825591602001919060010190620004c1565b5b509050620004ee91906200051a565b5090565b5b808211156200051657600081816200050c919062000539565b50600101620004f3565b5090565b5b80821115620005355760008160009055506001016200051b565b5090565b50805462000547906200074a565b6000825580601f106200055b57506200057c565b601f0160209004906000526020600020908101906200057b91906200051a565b5b50565b620005946200058e8262000700565b620007ce565b82525050565b6000620005a7826200061a565b620005b3818562000625565b9350620005c581856020860162000714565b80840191505092915050565b6000620005df82856200057f565b602082019150620005f182846200057f565b6020820191508190509392505050565b60006200060f82846200059a565b915081905092915050565b600081519050919050565b600081905092915050565b60006200063d826200070a565b91506200064a836200070a565b9250827fffffffffffffffffffffffffffffffffffffffffffffffffffffffffffffffff03821115620006825762000681620007d8565b5b828201905092915050565b60006200069a826200070a565b9150620006a7836200070a565b925082620006ba57620006b962000807565b5b828204905092915050565b6000620006d2826200070a565b9150620006df836200070a565b925082821015620006f557620006f4620007d8565b5b828203905092915050565b6000819050919050565b6000819050919050565b60005b838110156200073457808201518184015260208101905062000717565b8381111562000744576000848401525b50505050565b600060028204905060018216806200076357607f821691505b602082108114156200077a576200077962000836565b5b50919050565b60006200078d826200070a565b91507fffffffffffffffffffffffffffffffffffffffffffffffffffffffffffffffff821415620007c357620007c2620007d8565b5b600182019050919050565b6000819050919050565b7f4e487b7100000000000000000000000000000000000000000000000000000000600052601160045260246000fd5b7f4e487b7100000000000000000000000000000000000000000000000000000000600052601260045260246000fd5b7f4e487b7100000000000000000000000000000000000000000000000000000000600052602260045260246000fd5b6108d680620008756000396000f3fe608060405234801561001057600080fd5b506004361061004c5760003560e01c80632637cccf14610051578063501895ae1461008157806352de70af146100b15780636a11b2a8146100e1575b600080fd5b61006b600480360381019061006691906103e2565b610111565b6040516100789190610580565b60405180910390f35b61009b60048036038101906100969190610475565b610213565b6040516100a8919061059b565b60405180910390f35b6100cb60048036038101906100c691906103a1565b610237565b6040516100d8919061059b565b60405180910390f35b6100fb60048036038101906100f691906103a1565b610250565b60405161010891906105b6565b60405180910390f35b60008061011d86610237565b905060005b8351811015610204576000848281518110610166577f4e487b7100000000000000000000000000000000000000000000000000000000600052603260045260246000fd5b60200260200101519050600060028861017f91906107a3565b14156101b557828160405160200161019892919061053d565b6040516020818303038152906040528051906020012092506101e1565b80836040516020016101c892919061053d565b6040516020818303038152906040528051906020012092505b6002876101ee919061068c565b96505080806101fc90610750565b915050610122565b50838114915050949350505050565b6000818154811061022357600080fd5b906000526020600020016000915090505481565b600061024282610250565b805190602001209050919050565b6060816040516020016102639190610569565b6040516020818303038152906040529050919050565b600061028c610287846105fd565b6105d8565b905080838252602082019050828560208602820111156102ab57600080fd5b60005b858110156102db57816102c1888261034d565b8452602084019350602083019250506001810190506102ae565b5050509392505050565b60006102f86102f384610629565b6105d8565b90508281526020810184848401111561031057600080fd5b61031b8482856106dd565b509392505050565b600082601f83011261033457600080fd5b8135610344848260208601610279565b91505092915050565b60008135905061035c81610872565b92915050565b600082601f83011261037357600080fd5b81356103838482602086016102e5565b91505092915050565b60008135905061039b81610889565b92915050565b6000602082840312156103b357600080fd5b600082013567ffffffffffffffff8111156103cd57600080fd5b6103d984828501610362565b91505092915050565b600080600080608085870312156103f857600080fd5b600085013567ffffffffffffffff81111561041257600080fd5b61041e87828801610362565b945050602061042f8782880161038c565b93505060406104408782880161034d565b925050606085013567ffffffffffffffff81111561045d57600080fd5b61046987828801610323565b91505092959194509250565b60006020828403121561048757600080fd5b60006104958482850161038c565b91505092915050565b6104a7816106bd565b82525050565b6104b6816106c9565b82525050565b6104cd6104c8826106c9565b610799565b82525050565b60006104de8261065a565b6104e88185610670565b93506104f88185602086016106ec565b61050181610861565b840191505092915050565b600061051782610665565b6105218185610681565b93506105318185602086016106ec565b80840191505092915050565b600061054982856104bc565b60208201915061055982846104bc565b6020820191508190509392505050565b6000610575828461050c565b915081905092915050565b6000602082019050610595600083018461049e565b92915050565b60006020820190506105b060008301846104ad565b92915050565b600060208201905081810360008301526105d081846104d3565b905092915050565b60006105e26105f3565b90506105ee828261071f565b919050565b6000604051905090565b600067ffffffffffffffff82111561061857610617610832565b5b602082029050602081019050919050565b600067ffffffffffffffff82111561064457610643610832565b5b61064d82610861565b9050602081019050919050565b600081519050919050565b600081519050919050565b600082825260208201905092915050565b600081905092915050565b6000610697826106d3565b91506106a2836106d3565b9250826106b2576106b1610803565b5b828204905092915050565b60008115159050919050565b6000819050919050565b6000819050919050565b82818337600083830152505050565b60005b8381101561070a5780820151818401526020810190506106ef565b83811115610719576000848401525b50505050565b61072882610861565b810181811067ffffffffffffffff8211171561074757610746610832565b5b80604052505050565b600061075b826106d3565b91507fffffffffffffffffffffffffffffffffffffffffffffffffffffffffffffffff82141561078e5761078d6107d4565b5b600182019050919050565b6000819050919050565b60006107ae826106d3565b91506107b9836106d3565b9250826107c9576107c8610803565b5b828206905092915050565b7f4e487b7100000000000000000000000000000000000000000000000000000000600052601160045260246000fd5b7f4e487b7100000000000000000000000000000000000000000000000000000000600052601260045260246000fd5b7f4e487b7100000000000000000000000000000000000000000000000000000000600052604160045260246000fd5b6000601f19601f8301169050919050565b61087b816106c9565b811461088657600080fd5b50565b610892816106d3565b811461089d57600080fd5b5056fea26469706673582212204264ebc2caaafbb2302062ad4f16817106c34c8266d479bfc888b4170c0d02d364736f6c63430008040033",
  "linkReferences": {},
  "deployedLinkReferences": {}
}