{
  "contracts/Merkle.sol": {
    "Merkle": {
      "abi": [
        {
          "inputs": [],
          "stateMutability": "nonpayable",
          "type": "constructor"
        },
        {
          "inputs": [
            {
              "internalType": "string",
              "name": "input",
              "type": "string"
            }
          ],
          "name": "encode",
          "outputs": [
            {
              "internalType": "bytes",
              "name": "",
              "type": "bytes"
            }
          ],
          "stateMutability": "pure",
          "type": "function"
        },
        {
          "inputs": [
            {
              "internalType": "uint256",
              "name": "",
              "type": "uint256"
            }
          ],
          "name": "hashes",
          "outputs": [
            {
              "internalType": "bytes32",
              "name": "",
              "type": "bytes32"
            }
          ],
          "stateMutability": "view",
          "type": "function"
        },
        {
          "inputs": [
            {
              "internalType": "string",
              "name": "input",
              "type": "string"
            }
          ],
          "name": "makeHash",
          "outputs": [
            {
              "internalType": "bytes32",
              "name": "",
              "type": "bytes32"
            }
          ],
          "stateMutability": "pure",
          "type": "function"
        },
        {
          "inputs": [
            {
              "internalType": "string",
              "name": "tx",
              "type": "string"
            },
            {
              "internalType": "uint256",
              "name": "index",
              "type": "uint256"
            },
            {
              "internalType": "bytes32",
              "name": "root",
              "type": "bytes32"
            },
            {
              "internalType": "bytes32[]",
              "name": "proof",
              "type": "bytes32[]"
            }
          ],
          "name": "verify",
          "outputs": [
            {
              "internalType": "bool",
              "name": "",
              "type": "bool"
            }
          ],
          "stateMutability": "pure",
          "type": "function"
        }
      ],
      "evm": {
        "bytecode": {
          "linkReferences": {},
          "object": "608060405260405180608001604052806040518060400160405280601081526020017f5458313a2073646866647364666864730000000000000000000000000000000081525081526020016040518060400160405280601081526020017f5458323a20666467686a6b686a6173720000000000000000000000000000000081525081526020016040518060400160405280601181526020017f5458333a206d676f6567766b736a676a6800000000000000000000000000000081525081526020016040518060400160405280601181526020017f5458343a206e67796e3339676e7369766e00000000000000000000000000000081525081525060019060046200010b92919062000407565b503480156200011957600080fd5b5060005b600481101562000242576000620002066001836004811062000168577f4e487b7100000000000000000000000000000000000000000000000000000000600052603260045260246000fd5b01805462000176906200074a565b80601f0160208091040260200160405190810160405280929190818152602001828054620001a4906200074a565b8015620001f55780601f10620001c957610100808354040283529160200191620001f5565b820191906000526020600020905b815481529060010190602001808311620001d757829003601f168201915b5050505050620003bb60201b60201c565b90806001815401808255809150506001900390600052602060002001600090919091909150558080620002399062000780565b9150506200011d565b5060006004905060005b6000821115620003b35760005b600183620002689190620006c5565b8110156200038b57600080828462000281919062000630565b81548110620002b9577f4e487b7100000000000000000000000000000000000000000000000000000000600052603260045260246000fd5b9060005260206000200154600060018486620002d6919062000630565b620002e2919062000630565b815481106200031a577f4e487b7100000000000000000000000000000000000000000000000000000000600052603260045260246000fd5b906000526020600020015460405160200162000338929190620005d1565b60405160208183030381529060405280519060200120908060018154018082558091505060019003906000526020600020016000909190919091505560028162000383919062000630565b905062000259565b5081816200039a919062000630565b9050600282620003ab91906200068d565b91506200024c565b505062000865565b6000620003ce82620003dc60201b60201c565b805190602001209050919050565b606081604051602001620003f1919062000601565b6040516020818303038152906040529050919050565b82600481019282156200044e579160200282015b828111156200044d5782518290805190602001906200043c92919062000461565b50916020019190600101906200041b565b5b5090506200045d9190620004f2565b5090565b8280546200046f906200074a565b90600052602060002090601f016020900481019282620004935760008555620004df565b82601f10620004ae57805160ff1916838001178555620004df565b82800160010185558215620004df579182015b82811115620004de578251825591602001919060010190620004c1565b5b509050620004ee91906200051a565b5090565b5b808211156200051657600081816200050c919062000539565b50600101620004f3565b5090565b5b80821115620005355760008160009055506001016200051b565b5090565b50805462000547906200074a565b6000825580601f106200055b57506200057c565b601f0160209004906000526020600020908101906200057b91906200051a565b5b50565b620005946200058e8262000700565b620007ce565b82525050565b6000620005a7826200061a565b620005b3818562000625565b9350620005c581856020860162000714565b80840191505092915050565b6000620005df82856200057f565b602082019150620005f182846200057f565b6020820191508190509392505050565b60006200060f82846200059a565b915081905092915050565b600081519050919050565b600081905092915050565b60006200063d826200070a565b91506200064a836200070a565b9250827fffffffffffffffffffffffffffffffffffffffffffffffffffffffffffffffff03821115620006825762000681620007d8565b5b828201905092915050565b60006200069a826200070a565b9150620006a7836200070a565b925082620006ba57620006b962000807565b5b828204905092915050565b6000620006d2826200070a565b9150620006df836200070a565b925082821015620006f557620006f4620007d8565b5b828203905092915050565b6000819050919050565b6000819050919050565b60005b838110156200073457808201518184015260208101905062000717565b8381111562000744576000848401525b50505050565b600060028204905060018216806200076357607f821691505b602082108114156200077a576200077962000836565b5b50919050565b60006200078d826200070a565b91507fffffffffffffffffffffffffffffffffffffffffffffffffffffffffffffffff821415620007c357620007c2620007d8565b5b600182019050919050565b6000819050919050565b7f4e487b7100000000000000000000000000000000000000000000000000000000600052601160045260246000fd5b7f4e487b7100000000000000000000000000000000000000000000000000000000600052601260045260246000fd5b7f4e487b7100000000000000000000000000000000000000000000000000000000600052602260045260246000fd5b6108d680620008756000396000f3fe608060405234801561001057600080fd5b506004361061004c5760003560e01c80632637cccf14610051578063501895ae1461008157806352de70af146100b15780636a11b2a8146100e1575b600080fd5b61006b600480360381019061006691906103e2565b610111565b6040516100789190610580565b60405180910390f35b61009b60048036038101906100969190610475565b610213565b6040516100a8919061059b565b60405180910390f35b6100cb60048036038101906100c691906103a1565b610237565b6040516100d8919061059b565b60405180910390f35b6100fb60048036038101906100f691906103a1565b610250565b60405161010891906105b6565b60405180910390f35b60008061011d86610237565b905060005b8351811015610204576000848281518110610166577f4e487b7100000000000000000000000000000000000000000000000000000000600052603260045260246000fd5b60200260200101519050600060028861017f91906107a3565b14156101b557828160405160200161019892919061053d565b6040516020818303038152906040528051906020012092506101e1565b80836040516020016101c892919061053d565b6040516020818303038152906040528051906020012092505b6002876101ee919061068c565b96505080806101fc90610750565b915050610122565b50838114915050949350505050565b6000818154811061022357600080fd5b906000526020600020016000915090505481565b600061024282610250565b805190602001209050919050565b6060816040516020016102639190610569565b6040516020818303038152906040529050919050565b600061028c610287846105fd565b6105d8565b905080838252602082019050828560208602820111156102ab57600080fd5b60005b858110156102db57816102c1888261034d565b8452602084019350602083019250506001810190506102ae565b5050509392505050565b60006102f86102f384610629565b6105d8565b90508281526020810184848401111561031057600080fd5b61031b8482856106dd565b509392505050565b600082601f83011261033457600080fd5b8135610344848260208601610279565b91505092915050565b60008135905061035c81610872565b92915050565b600082601f83011261037357600080fd5b81356103838482602086016102e5565b91505092915050565b60008135905061039b81610889565b92915050565b6000602082840312156103b357600080fd5b600082013567ffffffffffffffff8111156103cd57600080fd5b6103d984828501610362565b91505092915050565b600080600080608085870312156103f857600080fd5b600085013567ffffffffffffffff81111561041257600080fd5b61041e87828801610362565b945050602061042f8782880161038c565b93505060406104408782880161034d565b925050606085013567ffffffffffffffff81111561045d57600080fd5b61046987828801610323565b91505092959194509250565b60006020828403121561048757600080fd5b60006104958482850161038c565b91505092915050565b6104a7816106bd565b82525050565b6104b6816106c9565b82525050565b6104cd6104c8826106c9565b610799565b82525050565b60006104de8261065a565b6104e88185610670565b93506104f88185602086016106ec565b61050181610861565b840191505092915050565b600061051782610665565b6105218185610681565b93506105318185602086016106ec565b80840191505092915050565b600061054982856104bc565b60208201915061055982846104bc565b6020820191508190509392505050565b6000610575828461050c565b915081905092915050565b6000602082019050610595600083018461049e565b92915050565b60006020820190506105b060008301846104ad565b92915050565b600060208201905081810360008301526105d081846104d3565b905092915050565b60006105e26105f3565b90506105ee828261071f565b919050565b6000604051905090565b600067ffffffffffffffff82111561061857610617610832565b5b602082029050602081019050919050565b600067ffffffffffffffff82111561064457610643610832565b5b61064d82610861565b9050602081019050919050565b600081519050919050565b600081519050919050565b600082825260208201905092915050565b600081905092915050565b6000610697826106d3565b91506106a2836106d3565b9250826106b2576106b1610803565b5b828204905092915050565b60008115159050919050565b6000819050919050565b6000819050919050565b82818337600083830152505050565b60005b8381101561070a5780820151818401526020810190506106ef565b83811115610719576000848401525b50505050565b61072882610861565b810181811067ffffffffffffffff8211171561074757610746610832565b5b80604052505050565b600061075b826106d3565b91507fffffffffffffffffffffffffffffffffffffffffffffffffffffffffffffffff82141561078e5761078d6107d4565b5b600182019050919050565b6000819050919050565b60006107ae826106d3565b91506107b9836106d3565b9250826107c9576107c8610803565b5b828206905092915050565b7f4e487b7100000000000000000000000000000000000000000000000000000000600052601160045260246000fd5b7f4e487b7100000000000000000000000000000000000000000000000000000000600052601260045260246000fd5b7f4e487b7100000000000000000000000000000000000000000000000000000000600052604160045260246000fd5b6000601f19601f8301169050919050565b61087b816106c9565b811461088657600080fd5b50565b610892816106d3565b811461089d57600080fd5b5056fea26469706673582212204264ebc2caaafbb2302062ad4f16817106c34c8266d479bfc888b4170c0d02d364736f6c63430008040033",
          "opcodes": "PUSH1 0x80 PUSH1 0x40 MSTORE PUSH1 0x40 MLOAD DUP1 PUSH1 0x80 ADD PUSH1 0x40 MSTORE DUP1 PUSH1 0x40 MLOAD DUP1 PUSH1 0x40 ADD PUSH1 0x40 MSTORE DUP1 PUSH1 0x10 DUP2 MSTORE PUSH1 0x20 ADD PUSH32 0x5458313A20736468666473646668647300000000000000000000000000000000 DUP2 MSTORE POP DUP2 MSTORE PUSH1 0x20 ADD PUSH1 0x40 MLOAD DUP1 PUSH1 0x40 ADD PUSH1 0x40 MSTORE DUP1 PUSH1 0x10 DUP2 MSTORE PUSH1 0x20 ADD PUSH32 0x5458323A20666467686A6B686A61737200000000000000000000000000000000 DUP2 MSTORE POP DUP2 MSTORE PUSH1 0x20 ADD PUSH1 0x40 MLOAD DUP1 PUSH1 0x40 ADD PUSH1 0x40 MSTORE DUP1 PUSH1 0x11 DUP2 MSTORE PUSH1 0x20 ADD PUSH32 0x5458333A206D676F6567766B736A676A68000000000000000000000000000000 DUP2 MSTORE POP DUP2 MSTORE PUSH1 0x20 ADD PUSH1 0x40 MLOAD DUP1 PUSH1 0x40 ADD PUSH1 0x40 MSTORE DUP1 PUSH1 0x11 DUP2 MSTORE PUSH1 0x20 ADD PUSH32 0x5458343A206E67796E3339676E7369766E000000000000000000000000000000 DUP2 MSTORE POP DUP2 MSTORE POP PUSH1 0x1 SWAP1 PUSH1 0x4 PUSH3 0x10B SWAP3 SWAP2 SWAP1 PUSH3 0x407 JUMP JUMPDEST POP CALLVALUE DUP1 ISZERO PUSH3 0x119 JUMPI PUSH1 0x0 DUP1 REVERT JUMPDEST POP PUSH1 0x0 JUMPDEST PUSH1 0x4 DUP2 LT ISZERO PUSH3 0x242 JUMPI PUSH1 0x0 PUSH3 0x206 PUSH1 0x1 DUP4 PUSH1 0x4 DUP2 LT PUSH3 0x168 JUMPI PUSH32 0x4E487B7100000000000000000000000000000000000000000000000000000000 PUSH1 0x0 MSTORE PUSH1 0x32 PUSH1 0x4 MSTORE PUSH1 0x24 PUSH1 0x0 REVERT JUMPDEST ADD DUP1 SLOAD PUSH3 0x176 SWAP1 PUSH3 0x74A JUMP JUMPDEST DUP1 PUSH1 0x1F ADD PUSH1 0x20 DUP1 SWAP2 DIV MUL PUSH1 0x20 ADD PUSH1 0x40 MLOAD SWAP1 DUP2 ADD PUSH1 0x40 MSTORE DUP1 SWAP3 SWAP2 SWAP1 DUP2 DUP2 MSTORE PUSH1 0x20 ADD DUP3 DUP1 SLOAD PUSH3 0x1A4 SWAP1 PUSH3 0x74A JUMP JUMPDEST DUP1 ISZERO PUSH3 0x1F5 JUMPI DUP1 PUSH1 0x1F LT PUSH3 0x1C9 JUMPI PUSH2 0x100 DUP1 DUP4 SLOAD DIV MUL DUP4 MSTORE SWAP2 PUSH1 0x20 ADD SWAP2 PUSH3 0x1F5 JUMP JUMPDEST DUP3 ADD SWAP2 SWAP1 PUSH1 0x0 MSTORE PUSH1 0x20 PUSH1 0x0 KECCAK256 SWAP1 JUMPDEST DUP2 SLOAD DUP2 MSTORE SWAP1 PUSH1 0x1 ADD SWAP1 PUSH1 0x20 ADD DUP1 DUP4 GT PUSH3 0x1D7 JUMPI DUP3 SWAP1 SUB PUSH1 0x1F AND DUP3 ADD SWAP2 JUMPDEST POP POP POP POP POP PUSH3 0x3BB PUSH1 0x20 SHL PUSH1 0x20 SHR JUMP JUMPDEST SWAP1 DUP1 PUSH1 0x1 DUP2 SLOAD ADD DUP1 DUP3 SSTORE DUP1 SWAP2 POP POP PUSH1 0x1 SWAP1 SUB SWAP1 PUSH1 0x0 MSTORE PUSH1 0x20 PUSH1 0x0 KECCAK256 ADD PUSH1 0x0 SWAP1 SWAP2 SWAP1 SWAP2 SWAP1 SWAP2 POP SSTORE DUP1 DUP1 PUSH3 0x239 SWAP1 PUSH3 0x780 JUMP JUMPDEST SWAP2 POP POP PUSH3 0x11D JUMP JUMPDEST POP PUSH1 0x0 PUSH1 0x4 SWAP1 POP PUSH1 0x0 JUMPDEST PUSH1 0x0 DUP3 GT ISZERO PUSH3 0x3B3 JUMPI PUSH1 0x0 JUMPDEST PUSH1 0x1 DUP4 PUSH3 0x268 SWAP2 SWAP1 PUSH3 0x6C5 JUMP JUMPDEST DUP2 LT ISZERO PUSH3 0x38B JUMPI PUSH1 0x0 DUP1 DUP3 DUP5 PUSH3 0x281 SWAP2 SWAP1 PUSH3 0x630 JUMP JUMPDEST DUP2 SLOAD DUP2 LT PUSH3 0x2B9 JUMPI PUSH32 0x4E487B7100000000000000000000000000000000000000000000000000000000 PUSH1 0x0 MSTORE PUSH1 0x32 PUSH1 0x4 MSTORE PUSH1 0x24 PUSH1 0x0 REVERT JUMPDEST SWAP1 PUSH1 0x0 MSTORE PUSH1 0x20 PUSH1 0x0 KECCAK256 ADD SLOAD PUSH1 0x0 PUSH1 0x1 DUP5 DUP7 PUSH3 0x2D6 SWAP2 SWAP1 PUSH3 0x630 JUMP JUMPDEST PUSH3 0x2E2 SWAP2 SWAP1 PUSH3 0x630 JUMP JUMPDEST DUP2 SLOAD DUP2 LT PUSH3 0x31A JUMPI PUSH32 0x4E487B7100000000000000000000000000000000000000000000000000000000 PUSH1 0x0 MSTORE PUSH1 0x32 PUSH1 0x4 MSTORE PUSH1 0x24 PUSH1 0x0 REVERT JUMPDEST SWAP1 PUSH1 0x0 MSTORE PUSH1 0x20 PUSH1 0x0 KECCAK256 ADD SLOAD PUSH1 0x40 MLOAD PUSH1 0x20 ADD PUSH3 0x338 SWAP3 SWAP2 SWAP1 PUSH3 0x5D1 JUMP JUMPDEST PUSH1 0x40 MLOAD PUSH1 0x20 DUP2 DUP4 SUB SUB DUP2 MSTORE SWAP1 PUSH1 0x40 MSTORE DUP1 MLOAD SWAP1 PUSH1 0x20 ADD KECCAK256 SWAP1 DUP1 PUSH1 0x1 DUP2 SLOAD ADD DUP1 DUP3 SSTORE DUP1 SWAP2 POP POP PUSH1 0x1 SWAP1 SUB SWAP1 PUSH1 0x0 MSTORE PUSH1 0x20 PUSH1 0x0 KECCAK256 ADD PUSH1 0x0 SWAP1 SWAP2 SWAP1 SWAP2 SWAP1 SWAP2 POP SSTORE PUSH1 0x2 DUP2 PUSH3 0x383 SWAP2 SWAP1 PUSH3 0x630 JUMP JUMPDEST SWAP1 POP PUSH3 0x259 JUMP JUMPDEST POP DUP2 DUP2 PUSH3 0x39A SWAP2 SWAP1 PUSH3 0x630 JUMP JUMPDEST SWAP1 POP PUSH1 0x2 DUP3 PUSH3 0x3AB SWAP2 SWAP1 PUSH3 0x68D JUMP JUMPDEST SWAP2 POP PUSH3 0x24C JUMP JUMPDEST POP POP PUSH3 0x865 JUMP JUMPDEST PUSH1 0x0 PUSH3 0x3CE DUP3 PUSH3 0x3DC PUSH1 0x20 SHL PUSH1 0x20 SHR JUMP JUMPDEST DUP1 MLOAD SWAP1 PUSH1 0x20 ADD KECCAK256 SWAP1 POP SWAP2 SWAP1 POP JUMP JUMPDEST PUSH1 0x60 DUP2 PUSH1 0x40 MLOAD PUSH1 0x20 ADD PUSH3 0x3F1 SWAP2 SWAP1 PUSH3 0x601 JUMP JUMPDEST PUSH1 0x40 MLOAD PUSH1 0x20 DUP2 DUP4 SUB SUB DUP2 MSTORE SWAP1 PUSH1 0x40 MSTORE SWAP1 POP SWAP2 SWAP1 POP JUMP JUMPDEST DUP3 PUSH1 0x4 DUP2 ADD SWAP3 DUP3 ISZERO PUSH3 0x44E JUMPI SWAP2 PUSH1 0x20 MUL DUP3 ADD JUMPDEST DUP3 DUP2 GT ISZERO PUSH3 0x44D JUMPI DUP3 MLOAD DUP3 SWAP1 DUP1 MLOAD SWAP1 PUSH1 0x20 ADD SWAP1 PUSH3 0x43C SWAP3 SWAP2 SWAP1 PUSH3 0x461 JUMP JUMPDEST POP SWAP2 PUSH1 0x20 ADD SWAP2 SWAP1 PUSH1 0x1 ADD SWAP1 PUSH3 0x41B JUMP JUMPDEST JUMPDEST POP SWAP1 POP PUSH3 0x45D SWAP2 SWAP1 PUSH3 0x4F2 JUMP JUMPDEST POP SWAP1 JUMP JUMPDEST DUP3 DUP1 SLOAD PUSH3 0x46F SWAP1 PUSH3 0x74A JUMP JUMPDEST SWAP1 PUSH1 0x0 MSTORE PUSH1 0x20 PUSH1 0x0 KECCAK256 SWAP1 PUSH1 0x1F ADD PUSH1 0x20 SWAP1 DIV DUP2 ADD SWAP3 DUP3 PUSH3 0x493 JUMPI PUSH1 0x0 DUP6 SSTORE PUSH3 0x4DF JUMP JUMPDEST DUP3 PUSH1 0x1F LT PUSH3 0x4AE JUMPI DUP1 MLOAD PUSH1 0xFF NOT AND DUP4 DUP1 ADD OR DUP6 SSTORE PUSH3 0x4DF JUMP JUMPDEST DUP3 DUP1 ADD PUSH1 0x1 ADD DUP6 SSTORE DUP3 ISZERO PUSH3 0x4DF JUMPI SWAP2 DUP3 ADD JUMPDEST DUP3 DUP2 GT ISZERO PUSH3 0x4DE JUMPI DUP3 MLOAD DUP3 SSTORE SWAP2 PUSH1 0x20 ADD SWAP2 SWAP1 PUSH1 0x1 ADD SWAP1 PUSH3 0x4C1 JUMP JUMPDEST JUMPDEST POP SWAP1 POP PUSH3 0x4EE SWAP2 SWAP1 PUSH3 0x51A JUMP JUMPDEST POP SWAP1 JUMP JUMPDEST JUMPDEST DUP1 DUP3 GT ISZERO PUSH3 0x516 JUMPI PUSH1 0x0 DUP2 DUP2 PUSH3 0x50C SWAP2 SWAP1 PUSH3 0x539 JUMP JUMPDEST POP PUSH1 0x1 ADD PUSH3 0x4F3 JUMP JUMPDEST POP SWAP1 JUMP JUMPDEST JUMPDEST DUP1 DUP3 GT ISZERO PUSH3 0x535 JUMPI PUSH1 0x0 DUP2 PUSH1 0x0 SWAP1 SSTORE POP PUSH1 0x1 ADD PUSH3 0x51B JUMP JUMPDEST POP SWAP1 JUMP JUMPDEST POP DUP1 SLOAD PUSH3 0x547 SWAP1 PUSH3 0x74A JUMP JUMPDEST PUSH1 0x0 DUP3 SSTORE DUP1 PUSH1 0x1F LT PUSH3 0x55B JUMPI POP PUSH3 0x57C JUMP JUMPDEST PUSH1 0x1F ADD PUSH1 0x20 SWAP1 DIV SWAP1 PUSH1 0x0 MSTORE PUSH1 0x20 PUSH1 0x0 KECCAK256 SWAP1 DUP2 ADD SWAP1 PUSH3 0x57B SWAP2 SWAP1 PUSH3 0x51A JUMP JUMPDEST JUMPDEST POP JUMP JUMPDEST PUSH3 0x594 PUSH3 0x58E DUP3 PUSH3 0x700 JUMP JUMPDEST PUSH3 0x7CE JUMP JUMPDEST DUP3 MSTORE POP POP JUMP JUMPDEST PUSH1 0x0 PUSH3 0x5A7 DUP3 PUSH3 0x61A JUMP JUMPDEST PUSH3 0x5B3 DUP2 DUP6 PUSH3 0x625 JUMP JUMPDEST SWAP4 POP PUSH3 0x5C5 DUP2 DUP6 PUSH1 0x20 DUP7 ADD PUSH3 0x714 JUMP JUMPDEST DUP1 DUP5 ADD SWAP2 POP POP SWAP3 SWAP2 POP POP JUMP JUMPDEST PUSH1 0x0 PUSH3 0x5DF DUP3 DUP6 PUSH3 0x57F JUMP JUMPDEST PUSH1 0x20 DUP3 ADD SWAP2 POP PUSH3 0x5F1 DUP3 DUP5 PUSH3 0x57F JUMP JUMPDEST PUSH1 0x20 DUP3 ADD SWAP2 POP DUP2 SWAP1 POP SWAP4 SWAP3 POP POP POP JUMP JUMPDEST PUSH1 0x0 PUSH3 0x60F DUP3 DUP5 PUSH3 0x59A JUMP JUMPDEST SWAP2 POP DUP2 SWAP1 POP SWAP3 SWAP2 POP POP JUMP JUMPDEST PUSH1 0x0 DUP2 MLOAD SWAP1 POP SWAP2 SWAP1 POP JUMP JUMPDEST PUSH1 0x0 DUP2 SWAP1 POP SWAP3 SWAP2 POP POP JUMP JUMPDEST PUSH1 0x0 PUSH3 0x63D DUP3 PUSH3 0x70A JUMP JUMPDEST SWAP2 POP PUSH3 0x64A DUP4 PUSH3 0x70A JUMP JUMPDEST SWAP3 POP DUP3 PUSH32 0xFFFFFFFFFFFFFFFFFFFFFFFFFFFFFFFFFFFFFFFFFFFFFFFFFFFFFFFFFFFFFFFF SUB DUP3 GT ISZERO PUSH3 0x682 JUMPI PUSH3 0x681 PUSH3 0x7D8 JUMP JUMPDEST JUMPDEST DUP3 DUP3 ADD SWAP1 POP SWAP3 SWAP2 POP POP JUMP JUMPDEST PUSH1 0x0 PUSH3 0x69A DUP3 PUSH3 0x70A JUMP JUMPDEST SWAP2 POP PUSH3 0x6A7 DUP4 PUSH3 0x70A JUMP JUMPDEST SWAP3 POP DUP3 PUSH3 0x6BA JUMPI PUSH3 0x6B9 PUSH3 0x807 JUMP JUMPDEST JUMPDEST DUP3 DUP3 DIV SWAP1 POP SWAP3 SWAP2 POP POP JUMP JUMPDEST PUSH1 0x0 PUSH3 0x6D2 DUP3 PUSH3 0x70A JUMP JUMPDEST SWAP2 POP PUSH3 0x6DF DUP4 PUSH3 0x70A JUMP JUMPDEST SWAP3 POP DUP3 DUP3 LT ISZERO PUSH3 0x6F5 JUMPI PUSH3 0x6F4 PUSH3 0x7D8 JUMP JUMPDEST JUMPDEST DUP3 DUP3 SUB SWAP1 POP SWAP3 SWAP2 POP POP JUMP JUMPDEST PUSH1 0x0 DUP2 SWAP1 POP SWAP2 SWAP1 POP JUMP JUMPDEST PUSH1 0x0 DUP2 SWAP1 POP SWAP2 SWAP1 POP JUMP JUMPDEST PUSH1 0x0 JUMPDEST DUP4 DUP2 LT ISZERO PUSH3 0x734 JUMPI DUP1 DUP3 ADD MLOAD DUP2 DUP5 ADD MSTORE PUSH1 0x20 DUP2 ADD SWAP1 POP PUSH3 0x717 JUMP JUMPDEST DUP4 DUP2 GT ISZERO PUSH3 0x744 JUMPI PUSH1 0x0 DUP5 DUP5 ADD MSTORE JUMPDEST POP POP POP POP JUMP JUMPDEST PUSH1 0x0 PUSH1 0x2 DUP3 DIV SWAP1 POP PUSH1 0x1 DUP3 AND DUP1 PUSH3 0x763 JUMPI PUSH1 0x7F DUP3 AND SWAP2 POP JUMPDEST PUSH1 0x20 DUP3 LT DUP2 EQ ISZERO PUSH3 0x77A JUMPI PUSH3 0x779 PUSH3 0x836 JUMP JUMPDEST JUMPDEST POP SWAP2 SWAP1 POP JUMP JUMPDEST PUSH1 0x0 PUSH3 0x78D DUP3 PUSH3 0x70A JUMP JUMPDEST SWAP2 POP PUSH32 0xFFFFFFFFFFFFFFFFFFFFFFFFFFFFFFFFFFFFFFFFFFFFFFFFFFFFFFFFFFFFFFFF DUP3 EQ ISZERO PUSH3 0x7C3 JUMPI PUSH3 0x7C2 PUSH3 0x7D8 JUMP JUMPDEST JUMPDEST PUSH1 0x1 DUP3 ADD SWAP1 POP SWAP2 SWAP1 POP JUMP JUMPDEST PUSH1 0x0 DUP2 SWAP1 POP SWAP2 SWAP1 POP JUMP JUMPDEST PUSH32 0x4E487B7100000000000000000000000000000000000000000000000000000000 PUSH1 0x0 MSTORE PUSH1 0x11 PUSH1 0x4 MSTORE PUSH1 0x24 PUSH1 0x0 REVERT JUMPDEST PUSH32 0x4E487B7100000000000000000000000000000000000000000000000000000000 PUSH1 0x0 MSTORE PUSH1 0x12 PUSH1 0x4 MSTORE PUSH1 0x24 PUSH1 0x0 REVERT JUMPDEST PUSH32 0x4E487B7100000000000000000000000000000000000000000000000000000000 PUSH1 0x0 MSTORE PUSH1 0x22 PUSH1 0x4 MSTORE PUSH1 0x24 PUSH1 0x0 REVERT JUMPDEST PUSH2 0x8D6 DUP1 PUSH3 0x875 PUSH1 0x0 CODECOPY PUSH1 0x0 RETURN INVALID PUSH1 0x80 PUSH1 0x40 MSTORE CALLVALUE DUP1 ISZERO PUSH2 0x10 JUMPI PUSH1 0x0 DUP1 REVERT JUMPDEST POP PUSH1 0x4 CALLDATASIZE LT PUSH2 0x4C JUMPI PUSH1 0x0 CALLDATALOAD PUSH1 0xE0 SHR DUP1 PUSH4 0x2637CCCF EQ PUSH2 0x51 JUMPI DUP1 PUSH4 0x501895AE EQ PUSH2 0x81 JUMPI DUP1 PUSH4 0x52DE70AF EQ PUSH2 0xB1 JUMPI DUP1 PUSH4 0x6A11B2A8 EQ PUSH2 0xE1 JUMPI JUMPDEST PUSH1 0x0 DUP1 REVERT JUMPDEST PUSH2 0x6B PUSH1 0x4 DUP1 CALLDATASIZE SUB DUP2 ADD SWAP1 PUSH2 0x66 SWAP2 SWAP1 PUSH2 0x3E2 JUMP JUMPDEST PUSH2 0x111 JUMP JUMPDEST PUSH1 0x40 MLOAD PUSH2 0x78 SWAP2 SWAP1 PUSH2 0x580 JUMP JUMPDEST PUSH1 0x40 MLOAD DUP1 SWAP2 SUB SWAP1 RETURN JUMPDEST PUSH2 0x9B PUSH1 0x4 DUP1 CALLDATASIZE SUB DUP2 ADD SWAP1 PUSH2 0x96 SWAP2 SWAP1 PUSH2 0x475 JUMP JUMPDEST PUSH2 0x213 JUMP JUMPDEST PUSH1 0x40 MLOAD PUSH2 0xA8 SWAP2 SWAP1 PUSH2 0x59B JUMP JUMPDEST PUSH1 0x40 MLOAD DUP1 SWAP2 SUB SWAP1 RETURN JUMPDEST PUSH2 0xCB PUSH1 0x4 DUP1 CALLDATASIZE SUB DUP2 ADD SWAP1 PUSH2 0xC6 SWAP2 SWAP1 PUSH2 0x3A1 JUMP JUMPDEST PUSH2 0x237 JUMP JUMPDEST PUSH1 0x40 MLOAD PUSH2 0xD8 SWAP2 SWAP1 PUSH2 0x59B JUMP JUMPDEST PUSH1 0x40 MLOAD DUP1 SWAP2 SUB SWAP1 RETURN JUMPDEST PUSH2 0xFB PUSH1 0x4 DUP1 CALLDATASIZE SUB DUP2 ADD SWAP1 PUSH2 0xF6 SWAP2 SWAP1 PUSH2 0x3A1 JUMP JUMPDEST PUSH2 0x250 JUMP JUMPDEST PUSH1 0x40 MLOAD PUSH2 0x108 SWAP2 SWAP1 PUSH2 0x5B6 JUMP JUMPDEST PUSH1 0x40 MLOAD DUP1 SWAP2 SUB SWAP1 RETURN JUMPDEST PUSH1 0x0 DUP1 PUSH2 0x11D DUP7 PUSH2 0x237 JUMP JUMPDEST SWAP1 POP PUSH1 0x0 JUMPDEST DUP4 MLOAD DUP2 LT ISZERO PUSH2 0x204 JUMPI PUSH1 0x0 DUP5 DUP3 DUP2 MLOAD DUP2 LT PUSH2 0x166 JUMPI PUSH32 0x4E487B7100000000000000000000000000000000000000000000000000000000 PUSH1 0x0 MSTORE PUSH1 0x32 PUSH1 0x4 MSTORE PUSH1 0x24 PUSH1 0x0 REVERT JUMPDEST PUSH1 0x20 MUL PUSH1 0x20 ADD ADD MLOAD SWAP1 POP PUSH1 0x0 PUSH1 0x2 DUP9 PUSH2 0x17F SWAP2 SWAP1 PUSH2 0x7A3 JUMP JUMPDEST EQ ISZERO PUSH2 0x1B5 JUMPI DUP3 DUP2 PUSH1 0x40 MLOAD PUSH1 0x20 ADD PUSH2 0x198 SWAP3 SWAP2 SWAP1 PUSH2 0x53D JUMP JUMPDEST PUSH1 0x40 MLOAD PUSH1 0x20 DUP2 DUP4 SUB SUB DUP2 MSTORE SWAP1 PUSH1 0x40 MSTORE DUP1 MLOAD SWAP1 PUSH1 0x20 ADD KECCAK256 SWAP3 POP PUSH2 0x1E1 JUMP JUMPDEST DUP1 DUP4 PUSH1 0x40 MLOAD PUSH1 0x20 ADD PUSH2 0x1C8 SWAP3 SWAP2 SWAP1 PUSH2 0x53D JUMP JUMPDEST PUSH1 0x40 MLOAD PUSH1 0x20 DUP2 DUP4 SUB SUB DUP2 MSTORE SWAP1 PUSH1 0x40 MSTORE DUP1 MLOAD SWAP1 PUSH1 0x20 ADD KECCAK256 SWAP3 POP JUMPDEST PUSH1 0x2 DUP8 PUSH2 0x1EE SWAP2 SWAP1 PUSH2 0x68C JUMP JUMPDEST SWAP7 POP POP DUP1 DUP1 PUSH2 0x1FC SWAP1 PUSH2 0x750 JUMP JUMPDEST SWAP2 POP POP PUSH2 0x122 JUMP JUMPDEST POP DUP4 DUP2 EQ SWAP2 POP POP SWAP5 SWAP4 POP POP POP POP JUMP JUMPDEST PUSH1 0x0 DUP2 DUP2 SLOAD DUP2 LT PUSH2 0x223 JUMPI PUSH1 0x0 DUP1 REVERT JUMPDEST SWAP1 PUSH1 0x0 MSTORE PUSH1 0x20 PUSH1 0x0 KECCAK256 ADD PUSH1 0x0 SWAP2 POP SWAP1 POP SLOAD DUP2 JUMP JUMPDEST PUSH1 0x0 PUSH2 0x242 DUP3 PUSH2 0x250 JUMP JUMPDEST DUP1 MLOAD SWAP1 PUSH1 0x20 ADD KECCAK256 SWAP1 POP SWAP2 SWAP1 POP JUMP JUMPDEST PUSH1 0x60 DUP2 PUSH1 0x40 MLOAD PUSH1 0x20 ADD PUSH2 0x263 SWAP2 SWAP1 PUSH2 0x569 JUMP JUMPDEST PUSH1 0x40 MLOAD PUSH1 0x20 DUP2 DUP4 SUB SUB DUP2 MSTORE SWAP1 PUSH1 0x40 MSTORE SWAP1 POP SWAP2 SWAP1 POP JUMP JUMPDEST PUSH1 0x0 PUSH2 0x28C PUSH2 0x287 DUP5 PUSH2 0x5FD JUMP JUMPDEST PUSH2 0x5D8 JUMP JUMPDEST SWAP1 POP DUP1 DUP4 DUP3 MSTORE PUSH1 0x20 DUP3 ADD SWAP1 POP DUP3 DUP6 PUSH1 0x20 DUP7 MUL DUP3 ADD GT ISZERO PUSH2 0x2AB JUMPI PUSH1 0x0 DUP1 REVERT JUMPDEST PUSH1 0x0 JUMPDEST DUP6 DUP2 LT ISZERO PUSH2 0x2DB JUMPI DUP2 PUSH2 0x2C1 DUP9 DUP3 PUSH2 0x34D JUMP JUMPDEST DUP5 MSTORE PUSH1 0x20 DUP5 ADD SWAP4 POP PUSH1 0x20 DUP4 ADD SWAP3 POP POP PUSH1 0x1 DUP2 ADD SWAP1 POP PUSH2 0x2AE JUMP JUMPDEST POP POP POP SWAP4 SWAP3 POP POP POP JUMP JUMPDEST PUSH1 0x0 PUSH2 0x2F8 PUSH2 0x2F3 DUP5 PUSH2 0x629 JUMP JUMPDEST PUSH2 0x5D8 JUMP JUMPDEST SWAP1 POP DUP3 DUP2 MSTORE PUSH1 0x20 DUP2 ADD DUP5 DUP5 DUP5 ADD GT ISZERO PUSH2 0x310 JUMPI PUSH1 0x0 DUP1 REVERT JUMPDEST PUSH2 0x31B DUP5 DUP3 DUP6 PUSH2 0x6DD JUMP JUMPDEST POP SWAP4 SWAP3 POP POP POP JUMP JUMPDEST PUSH1 0x0 DUP3 PUSH1 0x1F DUP4 ADD SLT PUSH2 0x334 JUMPI PUSH1 0x0 DUP1 REVERT JUMPDEST DUP2 CALLDATALOAD PUSH2 0x344 DUP5 DUP3 PUSH1 0x20 DUP7 ADD PUSH2 0x279 JUMP JUMPDEST SWAP2 POP POP SWAP3 SWAP2 POP POP JUMP JUMPDEST PUSH1 0x0 DUP2 CALLDATALOAD SWAP1 POP PUSH2 0x35C DUP2 PUSH2 0x872 JUMP JUMPDEST SWAP3 SWAP2 POP POP JUMP JUMPDEST PUSH1 0x0 DUP3 PUSH1 0x1F DUP4 ADD SLT PUSH2 0x373 JUMPI PUSH1 0x0 DUP1 REVERT JUMPDEST DUP2 CALLDATALOAD PUSH2 0x383 DUP5 DUP3 PUSH1 0x20 DUP7 ADD PUSH2 0x2E5 JUMP JUMPDEST SWAP2 POP POP SWAP3 SWAP2 POP POP JUMP JUMPDEST PUSH1 0x0 DUP2 CALLDATALOAD SWAP1 POP PUSH2 0x39B DUP2 PUSH2 0x889 JUMP JUMPDEST SWAP3 SWAP2 POP POP JUMP JUMPDEST PUSH1 0x0 PUSH1 0x20 DUP3 DUP5 SUB SLT ISZERO PUSH2 0x3B3 JUMPI PUSH1 0x0 DUP1 REVERT JUMPDEST PUSH1 0x0 DUP3 ADD CALLDATALOAD PUSH8 0xFFFFFFFFFFFFFFFF DUP2 GT ISZERO PUSH2 0x3CD JUMPI PUSH1 0x0 DUP1 REVERT JUMPDEST PUSH2 0x3D9 DUP5 DUP3 DUP6 ADD PUSH2 0x362 JUMP JUMPDEST SWAP2 POP POP SWAP3 SWAP2 POP POP JUMP JUMPDEST PUSH1 0x0 DUP1 PUSH1 0x0 DUP1 PUSH1 0x80 DUP6 DUP8 SUB SLT ISZERO PUSH2 0x3F8 JUMPI PUSH1 0x0 DUP1 REVERT JUMPDEST PUSH1 0x0 DUP6 ADD CALLDATALOAD PUSH8 0xFFFFFFFFFFFFFFFF DUP2 GT ISZERO PUSH2 0x412 JUMPI PUSH1 0x0 DUP1 REVERT JUMPDEST PUSH2 0x41E DUP8 DUP3 DUP9 ADD PUSH2 0x362 JUMP JUMPDEST SWAP5 POP POP PUSH1 0x20 PUSH2 0x42F DUP8 DUP3 DUP9 ADD PUSH2 0x38C JUMP JUMPDEST SWAP4 POP POP PUSH1 0x40 PUSH2 0x440 DUP8 DUP3 DUP9 ADD PUSH2 0x34D JUMP JUMPDEST SWAP3 POP POP PUSH1 0x60 DUP6 ADD CALLDATALOAD PUSH8 0xFFFFFFFFFFFFFFFF DUP2 GT ISZERO PUSH2 0x45D JUMPI PUSH1 0x0 DUP1 REVERT JUMPDEST PUSH2 0x469 DUP8 DUP3 DUP9 ADD PUSH2 0x323 JUMP JUMPDEST SWAP2 POP POP SWAP3 SWAP6 SWAP2 SWAP5 POP SWAP3 POP JUMP JUMPDEST PUSH1 0x0 PUSH1 0x20 DUP3 DUP5 SUB SLT ISZERO PUSH2 0x487 JUMPI PUSH1 0x0 DUP1 REVERT JUMPDEST PUSH1 0x0 PUSH2 0x495 DUP5 DUP3 DUP6 ADD PUSH2 0x38C JUMP JUMPDEST SWAP2 POP POP SWAP3 SWAP2 POP POP JUMP JUMPDEST PUSH2 0x4A7 DUP2 PUSH2 0x6BD JUMP JUMPDEST DUP3 MSTORE POP POP JUMP JUMPDEST PUSH2 0x4B6 DUP2 PUSH2 0x6C9 JUMP JUMPDEST DUP3 MSTORE POP POP JUMP JUMPDEST PUSH2 0x4CD PUSH2 0x4C8 DUP3 PUSH2 0x6C9 JUMP JUMPDEST PUSH2 0x799 JUMP JUMPDEST DUP3 MSTORE POP POP JUMP JUMPDEST PUSH1 0x0 PUSH2 0x4DE DUP3 PUSH2 0x65A JUMP JUMPDEST PUSH2 0x4E8 DUP2 DUP6 PUSH2 0x670 JUMP JUMPDEST SWAP4 POP PUSH2 0x4F8 DUP2 DUP6 PUSH1 0x20 DUP7 ADD PUSH2 0x6EC JUMP JUMPDEST PUSH2 0x501 DUP2 PUSH2 0x861 JUMP JUMPDEST DUP5 ADD SWAP2 POP POP SWAP3 SWAP2 POP POP JUMP JUMPDEST PUSH1 0x0 PUSH2 0x517 DUP3 PUSH2 0x665 JUMP JUMPDEST PUSH2 0x521 DUP2 DUP6 PUSH2 0x681 JUMP JUMPDEST SWAP4 POP PUSH2 0x531 DUP2 DUP6 PUSH1 0x20 DUP7 ADD PUSH2 0x6EC JUMP JUMPDEST DUP1 DUP5 ADD SWAP2 POP POP SWAP3 SWAP2 POP POP JUMP JUMPDEST PUSH1 0x0 PUSH2 0x549 DUP3 DUP6 PUSH2 0x4BC JUMP JUMPDEST PUSH1 0x20 DUP3 ADD SWAP2 POP PUSH2 0x559 DUP3 DUP5 PUSH2 0x4BC JUMP JUMPDEST PUSH1 0x20 DUP3 ADD SWAP2 POP DUP2 SWAP1 POP SWAP4 SWAP3 POP POP POP JUMP JUMPDEST PUSH1 0x0 PUSH2 0x575 DUP3 DUP5 PUSH2 0x50C JUMP JUMPDEST SWAP2 POP DUP2 SWAP1 POP SWAP3 SWAP2 POP POP JUMP JUMPDEST PUSH1 0x0 PUSH1 0x20 DUP3 ADD SWAP1 POP PUSH2 0x595 PUSH1 0x0 DUP4 ADD DUP5 PUSH2 0x49E JUMP JUMPDEST SWAP3 SWAP2 POP POP JUMP JUMPDEST PUSH1 0x0 PUSH1 0x20 DUP3 ADD SWAP1 POP PUSH2 0x5B0 PUSH1 0x0 DUP4 ADD DUP5 PUSH2 0x4AD JUMP JUMPDEST SWAP3 SWAP2 POP POP JUMP JUMPDEST PUSH1 0x0 PUSH1 0x20 DUP3 ADD SWAP1 POP DUP2 DUP2 SUB PUSH1 0x0 DUP4 ADD MSTORE PUSH2 0x5D0 DUP2 DUP5 PUSH2 0x4D3 JUMP JUMPDEST SWAP1 POP SWAP3 SWAP2 POP POP JUMP JUMPDEST PUSH1 0x0 PUSH2 0x5E2 PUSH2 0x5F3 JUMP JUMPDEST SWAP1 POP PUSH2 0x5EE DUP3 DUP3 PUSH2 0x71F JUMP JUMPDEST SWAP2 SWAP1 POP JUMP JUMPDEST PUSH1 0x0 PUSH1 0x40 MLOAD SWAP1 POP SWAP1 JUMP JUMPDEST PUSH1 0x0 PUSH8 0xFFFFFFFFFFFFFFFF DUP3 GT ISZERO PUSH2 0x618 JUMPI PUSH2 0x617 PUSH2 0x832 JUMP JUMPDEST JUMPDEST PUSH1 0x20 DUP3 MUL SWAP1 POP PUSH1 0x20 DUP2 ADD SWAP1 POP SWAP2 SWAP1 POP JUMP JUMPDEST PUSH1 0x0 PUSH8 0xFFFFFFFFFFFFFFFF DUP3 GT ISZERO PUSH2 0x644 JUMPI PUSH2 0x643 PUSH2 0x832 JUMP JUMPDEST JUMPDEST PUSH2 0x64D DUP3 PUSH2 0x861 JUMP JUMPDEST SWAP1 POP PUSH1 0x20 DUP2 ADD SWAP1 POP SWAP2 SWAP1 POP JUMP JUMPDEST PUSH1 0x0 DUP2 MLOAD SWAP1 POP SWAP2 SWAP1 POP JUMP JUMPDEST PUSH1 0x0 DUP2 MLOAD SWAP1 POP SWAP2 SWAP1 POP JUMP JUMPDEST PUSH1 0x0 DUP3 DUP3 MSTORE PUSH1 0x20 DUP3 ADD SWAP1 POP SWAP3 SWAP2 POP POP JUMP JUMPDEST PUSH1 0x0 DUP2 SWAP1 POP SWAP3 SWAP2 POP POP JUMP JUMPDEST PUSH1 0x0 PUSH2 0x697 DUP3 PUSH2 0x6D3 JUMP JUMPDEST SWAP2 POP PUSH2 0x6A2 DUP4 PUSH2 0x6D3 JUMP JUMPDEST SWAP3 POP DUP3 PUSH2 0x6B2 JUMPI PUSH2 0x6B1 PUSH2 0x803 JUMP JUMPDEST JUMPDEST DUP3 DUP3 DIV SWAP1 POP SWAP3 SWAP2 POP POP JUMP JUMPDEST PUSH1 0x0 DUP2 ISZERO ISZERO SWAP1 POP SWAP2 SWAP1 POP JUMP JUMPDEST PUSH1 0x0 DUP2 SWAP1 POP SWAP2 SWAP1 POP JUMP JUMPDEST PUSH1 0x0 DUP2 SWAP1 POP SWAP2 SWAP1 POP JUMP JUMPDEST DUP3 DUP2 DUP4 CALLDATACOPY PUSH1 0x0 DUP4 DUP4 ADD MSTORE POP POP POP JUMP JUMPDEST PUSH1 0x0 JUMPDEST DUP4 DUP2 LT ISZERO PUSH2 0x70A JUMPI DUP1 DUP3 ADD MLOAD DUP2 DUP5 ADD MSTORE PUSH1 0x20 DUP2 ADD SWAP1 POP PUSH2 0x6EF JUMP JUMPDEST DUP4 DUP2 GT ISZERO PUSH2 0x719 JUMPI PUSH1 0x0 DUP5 DUP5 ADD MSTORE JUMPDEST POP POP POP POP JUMP JUMPDEST PUSH2 0x728 DUP3 PUSH2 0x861 JUMP JUMPDEST DUP2 ADD DUP2 DUP2 LT PUSH8 0xFFFFFFFFFFFFFFFF DUP3 GT OR ISZERO PUSH2 0x747 JUMPI PUSH2 0x746 PUSH2 0x832 JUMP JUMPDEST JUMPDEST DUP1 PUSH1 0x40 MSTORE POP POP POP JUMP JUMPDEST PUSH1 0x0 PUSH2 0x75B DUP3 PUSH2 0x6D3 JUMP JUMPDEST SWAP2 POP PUSH32 0xFFFFFFFFFFFFFFFFFFFFFFFFFFFFFFFFFFFFFFFFFFFFFFFFFFFFFFFFFFFFFFFF DUP3 EQ ISZERO PUSH2 0x78E JUMPI PUSH2 0x78D PUSH2 0x7D4 JUMP JUMPDEST JUMPDEST PUSH1 0x1 DUP3 ADD SWAP1 POP SWAP2 SWAP1 POP JUMP JUMPDEST PUSH1 0x0 DUP2 SWAP1 POP SWAP2 SWAP1 POP JUMP JUMPDEST PUSH1 0x0 PUSH2 0x7AE DUP3 PUSH2 0x6D3 JUMP JUMPDEST SWAP2 POP PUSH2 0x7B9 DUP4 PUSH2 0x6D3 JUMP JUMPDEST SWAP3 POP DUP3 PUSH2 0x7C9 JUMPI PUSH2 0x7C8 PUSH2 0x803 JUMP JUMPDEST JUMPDEST DUP3 DUP3 MOD SWAP1 POP SWAP3 SWAP2 POP POP JUMP JUMPDEST PUSH32 0x4E487B7100000000000000000000000000000000000000000000000000000000 PUSH1 0x0 MSTORE PUSH1 0x11 PUSH1 0x4 MSTORE PUSH1 0x24 PUSH1 0x0 REVERT JUMPDEST PUSH32 0x4E487B7100000000000000000000000000000000000000000000000000000000 PUSH1 0x0 MSTORE PUSH1 0x12 PUSH1 0x4 MSTORE PUSH1 0x24 PUSH1 0x0 REVERT JUMPDEST PUSH32 0x4E487B7100000000000000000000000000000000000000000000000000000000 PUSH1 0x0 MSTORE PUSH1 0x41 PUSH1 0x4 MSTORE PUSH1 0x24 PUSH1 0x0 REVERT JUMPDEST PUSH1 0x0 PUSH1 0x1F NOT PUSH1 0x1F DUP4 ADD AND SWAP1 POP SWAP2 SWAP1 POP JUMP JUMPDEST PUSH2 0x87B DUP2 PUSH2 0x6C9 JUMP JUMPDEST DUP2 EQ PUSH2 0x886 JUMPI PUSH1 0x0 DUP1 REVERT JUMPDEST POP JUMP JUMPDEST PUSH2 0x892 DUP2 PUSH2 0x6D3 JUMP JUMPDEST DUP2 EQ PUSH2 0x89D JUMPI PUSH1 0x0 DUP1 REVERT JUMPDEST POP JUMP INVALID LOG2 PUSH5 0x6970667358 0x22 SLT KECCAK256 TIMESTAMP PUSH5 0xEBC2CAAAFB 0xB2 ADDRESS KECCAK256 PUSH3 0xAD4F16 DUP2 PUSH18 0x6C34C8266D479BFC888B4170C0D02D36473 PUSH16 0x6C634300080400330000000000000000 "
        },
        "methodIdentifiers": {
          "encode(string)": "6a11b2a8",
          "hashes(uint256)": "501895ae",
          "makeHash(string)": "52de70af",
          "verify(string,uint256,bytes32,bytes32[])": "2637cccf"
        }
      }
    }
  }
}